:020000040800F2
:10000000000002204D430108954301089543010873
:10001000954301089543010895430108000000003D
:1000200000000000000000000000000095430108EF
:10003000954301080000000095430108954301081D
:1000400000000000000000000000000000000000B0
:1000500000000000000000000000000000000000A0
:100060000000000000000000000000000000000090
:100070000000000000000000000000000000000080
:100080000000000000000000000000000000000070
:100090000000000000000000000000000000000060
:1000A0000000000000000000000000000000000050
:1000B0000000000000000000000000000000000040
:1000C0000000000000000000000000000000000030
:1000D0000000000000000000000000000000000020
:1000E0000000000000000000000000000000000010
:1000F0000000000000000000000000000000000000
:1001000000000000000000000000000000000000EF
:1001100000000000000000000000000000000000DF
:1001200000000000000000000000000000000000CF
:1001300000000000000000000000000000000000BF
:1001400000000000000000000000000000000000AF
:10015000000000000000000000000000000000009F
:10016000000000000000000000000000000000008F
:10017000000000000000000000000000000000007F
:08018000000000000000000077
:1001C0000348044B834202D0034B03B118477047E6
:1001D000B40A0020B40A00200000000005480649C7
:1001E0000B1AD90F01EBA301491002D0034B03B145
:1001F00018477047B40A0020B40A0020000000002D
:1002000010B5064C237843B9FFF7DAFF044B13B15E
:100210000448AFF300800123237010BDB40A00200E
:10022000000000003CDC030808B5044B1BB1044986
:100230000448AFF30080BDE80840CFE700000000AD
:10024000B80A00203CDC030881F0004102E000BF56
:1002500083F0004330B54FEA41044FEA430594EA86
:10026000050F08BF90EA020F1FBF54EA000C55EAC1
:10027000020C7FEA645C7FEA655C00F0E2804FEA92
:100280005454D4EB5555B8BF6D420CDD2C4480EA74
:10029000020281EA030382EA000083EA010180EAA4
:1002A000020281EA0303362D88BF30BD11F0004FF2
:1002B0004FEA01314FF4801C4CEA113102D0404228
:1002C00061EB410113F0004F4FEA03334CEA133363
:1002D00002D0524263EB430394EA050F00F0A7807B
:1002E000A4F10104D5F1200E0DDB02FA0EFC22FA76
:1002F00005F2801841F1000103FA0EF2801843FA6A
:1003000005F359410EE0A5F120050EF1200E012A5A
:1003100003FA0EFC28BF4CF0020C43FA05F3C01898
:1003200051EBE37101F0004507D54FF0000EDCF111
:10033000000C7EEB00006EEB0101B1F5801F1BD3BA
:10034000B1F5001F0CD349085FEA30004FEA3C0CBE
:1003500004F101044FEA445212F5800F80F09A80B4
:10036000BCF1004F08BF5FEA500C50F1000041EBB8
:10037000045141EA050130BD5FEA4C0C404141EBBC
:100380000101013C28BFB1F5801FE9D291F0000FB7
:1003900004BF01460020B1FA81F308BF2033A3F166
:1003A0000B03B3F120020CDA0C3208DD02F1140C5D
:1003B000C2F10C0201FA0CF021FA02F10CE002F198
:1003C0001402D8BFC2F1200C01FA02F120FA0CFC91
:1003D000DCBF41EA0C019040E41AA2BF01EB0451DA
:1003E000294330BD6FEA04041F3C1CDA0C340EDCD8
:1003F00004F11404C4F1200220FA04F001FA02F31B
:1004000040EA030021FA04F345EA030130BDC4F1D8
:100410000C04C4F1200220FA02F001FA04F340EACD
:100420000300294630BD21FA04F0294630BD94F07E
:10043000000F83F4801306BF81F480110134013D65
:100440004EE77FEA645C18BF7FEA655C29D094EAD6
:10045000050F08BF90EA020F05D054EA000C04BF54
:100460001946104630BD91EA030F1EBF002100203F
:1004700030BD5FEA545C05D14000494128BF41F0DE
:10048000004130BD14F580043CBF01F5801130BD42
:1004900001F0004545F0FE4141F470014FF00000CD
:1004A00030BD7FEA645C1ABF194610467FEA655C7E
:1004B0001CBF0B46024650EA013406BF52EA033520
:1004C00091EA030F41F4002130BD00BF90F0000F0E
:1004D00004BF0021704730B54FF4806404F132044A
:1004E0004FF000054FF0000150E700BF90F0000F03
:1004F00004BF0021704730B54FF4806404F132042A
:1005000010F0004548BF40424FF000013EE700BFF9
:1005100042004FEAE2014FEA31014FEA02701FBF89
:1005200012F07F4393F07F4F81F06051704732F0BB
:100530007F4208BF704793F07F4F04BF41F4002112
:10054000704730B54FF4607401F0004521F0004170
:100550001CE700BF50EA010208BF704730B54FF0FA
:1005600000050AE050EA010208BF704730B511F0FB
:10057000004502D5404261EB41014FF4806404F133
:1005800032045FEA915C3FF4D8AE4FF003025FEAB9
:10059000DC0C18BF03325FEADC0C18BF033202EB3D
:1005A000DC02C2F1200300FA03FC20FA02F001FA97
:1005B00003FE40EA0E0021FA02F11444BDE600BF3A
:1005C0004FF0FF3C06E000BF4FF0010C02E000BF1F
:1005D0004FF0010C4DF804CD4FEA410C7FEA6C5C02
:1005E0004FEA430C18BF7FEA6C5C1BD001B050EAA5
:1005F000410C0CBF52EA430C91EA030F02BF90EA90
:10060000020F0020704710F1000F91EA030F58BF4E
:10061000994208BF90422CBFD8176FEAE37040F0B0
:10062000010070474FEA410C7FEA6C5C02D150EA4E
:10063000013C07D14FEA430C7FEA6C5CD6D152EA09
:10064000033CD3D05DF8040B704700BF84461046CE
:1006500062468C461946634600E000BF01B5FFF7CD
:10066000B7FF002848BF10F1000F01BD4DF808ED9D
:10067000FFF7F4FF0CBF012000205DF808FB00BF6E
:100680004DF808EDFFF7EAFF34BF012000205DF8C8
:1006900008FB00BF4DF808EDFFF7E0FF94BF012015
:1006A00000205DF808FB00BF4DF808EDFFF7CEFF16
:1006B00094BF012000205DF808FB00BF4DF808ED55
:1006C000FFF7C4FF34BF012000205DF808FB00BF26
:1006D0004FF0FF3C06E000BF4FF0010C02E000BF0E
:1006E0004FF0010C4DF804CD4FEA40024FEA4103B0
:1006F0007FEA226C18BF7FEA236C11D001B052EA66
:10070000530C18BF90EA010F58BFB2EB030088BF2B
:10071000C81738BF6FEAE17018BF40F0010070479A
:100720007FEA226C02D15FEA402C05D17FEA236C7C
:10073000E4D15FEA412CE1D05DF8040B704700BFC3
:10074000844608466146FFE70FB5FFF7C9FF00285A
:1007500048BF10F1000F0FBD4DF808EDFFF7F4FF93
:100760000CBF012000205DF808FB00BF4DF808ED2C
:10077000FFF7EAFF34BF012000205DF808FB00BF4F
:100780004DF808EDFFF7E0FF94BF012000205DF871
:1007900008FB00BF4DF808EDFFF7D2FF94BF012022
:1007A00000205DF808FB00BF4DF808EDFFF7C8FF1B
:1007B00034BF012000205DF808FB00BF53B94AB9DF
:1007C000002908BF00281CBF4FF0FF314FF0FF3059
:1007D00001F0DEB8ADF1080C6DE904CE00F006F8CA
:1007E000DDF804E0DDE9022304B070472DE9F047AD
:1007F000089E0D4604468846002B4DD18A429446F9
:1008000068D9B2FA82F252B101FA02F3C2F12001C0
:1008100020FA01F10CFA02FC41EA030894404FEA85
:100820001C45210CB8FBF5FE1FFA8CF705FB1E8357
:1008300041EA03430EFB07F199420BD91CEB03037A
:100840000EF1FF3080F01E81994240F21B81AEF123
:10085000020E63445B1AA4B2B3FBF5F005FB103340
:1008600044EA034400FB07F7A7420AD91CEB04043F
:1008700000F1FF3380F00881A74240F20581644413
:100880000238E41B40EA0E4000211EB1D440002390
:10089000C6E90043BDE8F0878B4208D9002E00F07E
:1008A000EE800021C6E900050846BDE8F087B3FAEE
:1008B00083F100294AD1AB4202D3824200F2F9808F
:1008C000841A65EB030301209846002EE2D0C6E9A6
:1008D0000048DFE702B9FFDEB2FA82F2002A40F0F8
:1008E0009180A1EB0C054FEA1C471FFA8CFE0121F9
:1008F000B5FBF7F307FB1350250C45EA00450EFB4B
:1009000003F0A84208D91CEB050503F1FF3802D219
:10091000A84200F2CB8043462D1AA4B2B5FBF7F0F3
:1009200007FB105544EA05440EFB00FEA64508D916
:100930001CEB040400F1FF3502D2A64500F2BB8097
:100940002846A4EB0E0440EA03409EE7C1F12007CD
:100950008B4022FA07FC4CEA030C20FA07F405FA54
:1009600001F31C43FD404FEA1C4900FA01F3B5FBBB
:10097000F9F8200C1FFA8CFE09FB185540EA0545D2
:1009800008FB0EF0A84202FA01F20BD91CEB050598
:1009900008F1FF3A80F08880A84240F28580A8F1F3
:1009A000020865442D1AA4B2B5FBF9F009FB1055F5
:1009B00044EA054500FB0EFEAE4508D91CEB0505D3
:1009C00000F1FF346CD2AE456AD90238654440EA82
:1009D0000840A0FB0294A5EB0E05A542C846A6461A
:1009E00056D353D05EB1B3EB080265EB0E0505FAA2
:1009F00007F722FA01F3CD401F43C6E90075002135
:100A0000BDE8F087C2F1200320FA03F10CFA02FCE2
:100A100025FA03F395400D434FEA1C471FFA8CFE5D
:100A2000B3FBF7F107FB11302B0C43EA004301FB4A
:100A30000EF0984204FA02F408D91CEB030301F10A
:100A4000FF382FD298422DD9023963441B1AADB218
:100A5000B3FBF7F007FB103345EA034500FB0EF349
:100A6000AB4208D91CEB050500F1FF3816D2AB42AA
:100A700014D902386544ED1A40EA014138E731469D
:100A8000304607E78646E5E61846FAE64B45A9D222
:100A9000B9EB020864EB0C0E0138A3E74046EAE725
:100AA000204694E74146D1E7D0467BE7023B6544C8
:100AB00032E7084609E76444023842E703685A000F
:100AC0004CBF43F0004323F000431844704700BF7D
:100AD0002DE9F84329B34F1E044615463E464FF014
:100AE000000808EB060101EBD171491004EBC109C4
:100AF0004846FFF7E3FF0346C80008308F42204412
:100B000009D0AB4209D8FFF7D9FF0138A8420AD271
:100B100001F10108E5E7AB4205D9884501D04E1E39
:100B2000DFE74FF000094846BDE8F883012807D009
:100B3000022807D0044B00280CBF1846002070473D
:100B40000248704702487047051200080912000861
:100B50000D12000830B5234B83B004468D1E3BB305
:100B600001A92846AFF30080E8B101992A46FFF7B2
:100B7000AFFF0146B8B1FFF7A1FF4B68A064012B9E
:100B80002CD0002B01F1040024DBFFF797FF00239A
:100B9000C4E913030368002B11DBFFF78FFF20610B
:100BA000002003B030BD00230920236103B030BD15
:100BB0000D4B0E49C91AC91018460191D6E7C3F367
:100BC0000360FFF7B3FF0028206114BF0020092055
:100BD00003B030BD0123C4E91303DBE70023236125
:100BE0000520DEE70000000050640408D077040808
:100BF0000368DA0710B5044606D49B0700F14800E5
:100C000009D500F05BFC2368590709D51A070ED5F2
:100C1000DB0613D510BD00F049FC23685907F5D455
:100C200004F1D00000F052FC23681A07F0D404F558
:100C3000A87000F053FC2368DB06EBD404F5E870E1
:100C4000BDE8104000F08EBC0920704703460068E4
:100C500000B11844704700BF704700BF70B504462C
:100C60000E46316C2046FFF775FF054688B9326C99
:100C70006261236932462146012098470828F0D056
:100C8000072806D12846316CFFF7E6FF301D00F03B
:100C900001FC00F07FFE00BF2DE9F0470D1DD0F8EC
:100CA0000C80D0F81890074614460FCDADF5727D34
:100CB0000DF10C0CACE80F000FCDACE80F000FCD20
:100CC000ACE80F0095E80F0002AE4FF0000E8CE884
:100CD0000F00C6F800E020E0336C7B614FF4F07247
:100CE00031467AA802F010FB3B697AAA3946504691
:100CF0009847889B73642146CDE9006905463B46C9
:100D00003A460120C0470446E0B94FF4F0727AA990
:100D1000304602F0F9FA082D1AD1316C3846FFF747
:100D200019FF09345FFA84FA05460028D4D0B36B62
:100D300073643A46CDE900693B464AF01001012050
:100D4000C04700B1092528460DF5727DBDE8F08742
:100D5000072DF7D12046316CFFF77EFF03A800F086
:100D600099FB00BF406C7047F0B5CB6B0B6401F191
:100D7000040C0E460546BCE80F00F9B001AC0FC4E8
:100D8000BCE80F000FC4BCE80F000FC49CE80F00C4
:100D90004FF0FF3784E80F00009706E02B696A46A2
:100DA000294698470828044608D110992846FFF795
:100DB000D1FE0028F2D0092079B0F0BD6846FFF7D7
:100DC00017FF062CF7D131462846FFF747FF00BF33
:100DD000C160D96B82611964002219465CE700BFCB
:100DE00070B5C66843690B64AEB903690A46044628
:100DF0000D46014602209847072805D008280FD144
:100E000029462046FFF72AFF3046296CFFF724FFCA
:100E1000281D00F03FFB0122FFF73EFF00F0BAFD66
:100E200000F0B8FDC2681AB1CA6B0A64002233E749
:100E30009AE700BF704700BF836801460BB10120ED
:100E400018477047012912D009D873B90F2A0CD856
:100E500000EB820218465368009A1360704703390A
:100E6000012994BF012002207047022070470846E4
:100E7000704700BF00B585B00A46002303A9009162
:100E80001946FFF7DFFF039805B05DF804FB00BFCC
:100E9000012912D009D873B90F2A0CD800EB8200AF
:100EA000009A12684260184670470339012994BFBE
:100EB000012002207047022070470846704700BF9B
:100EC00010B584B0002303AC039200940A4619467F
:100ED000FFF7DEFF04B010BD70B5D36B136402F1F1
:100EE000040C05460C46BCE80F00ADF50E7D0DF177
:100EF0005C0EAEE80F00BCE80F00AEE80F00BCE8E7
:100F00000F00AEE80F009CE80F004FF0FF368EE8B0
:100F10000F00169610E0FFF7D3FF214616A8A8474A
:100F2000034616AA6946082083B9049B98470528FA
:100F300006460CD0092809D026996846FFF70AFE14
:100F400003466A460C2116A8002BE4D0092616A8F1
:100F5000FFF74EFE30460DF50E7D70BD2DE9F04FCA
:100F6000CC6C89B01E4654F8043B06940D461746D7
:100F700000F00308002E79D01A0C1B0405938DF89D
:100F80001D200223D2B204EB82048DF81C302B6D9D
:100F9000B8F1020F08BFAC6B13F001030CD005A928
:100FA000384600F079FB18B9082009B0BDE8F08F89
:100FB000092009B0BDE8F08FD4F800A0BAF1000F05
:100FC000EDD0019300F008030293022E4AD0B4F84A
:100FD00000A0B4F802900434AB6C29F0010B0F218F
:100FE00038469B44FFF746FF834539D82AF0010372
:100FF0009B44834594BF002001204FEA490303F03E
:1010000002030AF0010A43EA0A03012B49D0022B2A
:1010100032D0002BCCD1B8F1000F02D0002840F024
:10102000CD800434D4F800A0BAF1000FCDD105A9C9
:10103000384600F031FB0028BAD1019B002BB3D019
:101040000F213846FFF716FF0E2102463846FFF7FC
:1010500037FF38466A4A0F21FFF732FF0720A8E71B
:101060000020CAE7D4F804900834B5E71B020593C2
:101070000323ADF81C308AE7236823F0004BB8F156
:10108000000F45D128B1029A002A5CD0BBF1000FB5
:1010900074D0002B00DA04340BF1010B04EB8B0449
:1010A000C0E7B8F1000F19D1B0B163682268991C8C
:1010B0004FEAD2723FF47CAF05F15801013304913D
:1010C00000F09080201DFFF7C1FD04AB01462846CB
:1010D00013F0EEF900285BD10834A3E70D21384660
:1010E000D5F82090FFF7C6FE8145F5D1AB6A9C424A
:1010F000F2D12046FFF7E2FC0F2102463846FFF707
:10110000DFFE38462A460021FFF7DAFE072050E7C7
:101110000D213846D5F82090FFF7ACFE814501D06F
:101120002368B6E7AB6A9C42FAD104230022C5E9E2
:101130000B23E318C5F828B06B632368002B59DB39
:1011400001230193A8E705F15803CDF80C8004F1C1
:10115000040AB04691461E460EE050460496FFF73C
:1011600075FD0022014604AB284609F101090AF188
:10117000040A13F09DF9E0B9D945EED10D213846A6
:10118000FFF778FE049BAC62C5E90803062010E770
:1011900081460D213846FFF76DFEB9F1020F286236
:1011A00025D12B46049A43F82C2F6B62AC620620A3
:1011B000FFE646462368DDF80C806AE72046FFF725
:1011C0007DFC04340246AC632846144613F0CAF989
:1011D00000283FF4EDAE384622460F21FFF770FE9F
:1011E0000720E6E60D213846FFF744FE2862049BFF
:1011F0006B62DBE70BF1010004EB80007AE700BFD4
:10120000DDB903080023A9E60123A7E60223A5E62A
:101210002DE9F0430646C3B015461C46042900F2EA
:10122000BF80DFE801F09E57BD2D0300002C40F089
:10123000B780102A00F2B4800368D80600F1F98064
:1012400020AF384600F098F9B46B394600234FF0D0
:10125000010C0CFA03F22A42204603F1010303D0E9
:1012600050F8042B0A600446042B01F10401F0D16C
:101270003846B46300F076F9002043B0BDE8F0834F
:10128000032C40F08D8094B204EB1243102B4FEAF4
:10129000124500F2858003681F0700F1D28020AF5D
:1012A000384600F03DF9B26B07EBC50154B10B466F
:1012B000D01A01EBC401E4001D5843F8045B8B42D3
:1012C000FAD122443846B26300F008F9002043B056
:1012D000BDE8F083012C4FEA124895B25CD0052C92
:1012E0005ED108EB0509B9F1200F59D8B8F10F0FFD
:1012F00079D9A946002D40F08A80B36B6DB320AF39
:101300004FF0000907EBC807043F03EBC50553F88E
:10131000041B47F8041FAB42F9D1B9F1000F0FD0FD
:101320006F464146102938BF102107EBC1018439AF
:1013300003EBC90553F8040B41F8040FAB42F9D194
:10134000012C00F08680B8F10F0FB56347D9B9F1D1
:10135000000F02D0684600F0B9F8002043B0BDE8A5
:10136000F083ECB9806B23461FFA82FC0124371D01
:1013700004FA03F212EA0C0F014604D051F8042BD0
:1013800047F8232008460133102BF1D115F40055FE
:10139000E3D1B063284604E008EB0503102B03D922
:1013A000022043B0BDE8F083B8F10F0FF8D83368DE
:1013B000DA0706D5304623F0030340F8483B00F037
:1013C00079F820AF384600F075F8B36B002D97D14F
:1013D0001D460435B563384600F068F8BDE720A81F
:1013E00000F06CF8B3E7B9F1100F40D9A9F110097A
:1013F0003368D90708D523F00103304643F00203D0
:1014000040F8483B00F05EF8B9F1000F32D0336885
:101410005A0720D4B8F10F0F25D96F463846C8F1C6
:10142000100500F057F8002DB36B7FF77AAF20AFAF
:1014300068E723F01003336006F5E87000F09CF8CD
:10144000FEE623F00803036000F5A87000F068F8DA
:1014500025E720AFBDE7304623F0040340F8D03B3A
:1014600000F038F8D6E720A800F02CF8D5E74FF0C8
:101470000009BDE7B8F10F0F3FF63FAF20AF384688
:1014800000F020F8B36B002D7FF43AAF384600F03F
:1014900015F862E700F1340191E838009C46A64651
:1014A0004CF8045D90E8FF0FE54600BD90EC210B81
:1014B000704700BF80EC210B704700BF90EC200B01
:1014C000704700BF80EC200B704700BFD0EC200BB2
:1014D000704700BFC0EC200B704700BFF0EC02016A
:1014E000F0EC0211F0EC0221F0EC0231F0EC0241E0
:1014F000F0EC0251F0EC0261F0EC0271F0EC0281D0
:10150000F0EC0291F0EC02A1F0EC02B1F0EC02C1BF
:10151000F0EC02D1F0EC02E1F0EC02F1704700BF18
:10152000E0EC0201E0EC0211E0EC0221E0EC02311F
:10153000E0EC0241E0EC0251E0EC0261E0EC02710F
:10154000E0EC0281E0EC0291E0EC02A1E0EC02B1FF
:10155000E0EC02C1E0EC02D1E0EC02E1E0EC02F1EF
:10156000704700BFB0FC0181B0FC0191B0FC01A14B
:10157000B0FC01B1704700BFA0FC0181A0FC01914B
:10158000A0FC01A1A0FC01B1704700BFEC4600B572
:101590002DE900502DE9FF1F4FF000032DE90C004D
:1015A00001A9FFF7E1FBDDF840E012B0704700BF92
:1015B000EC4600B52DE900502DE9FF1F4FF0000368
:1015C0002DE90C0001A9FFF70BFCDDF840E012B09B
:1015D000704700BFEC4600B52DE900502DE9FF1F14
:1015E0004FF000032DE90C0001A9FFF71BFCDDF80B
:1015F00040E012B0704700BFEC4600B52DE9005046
:101600002DE9FF1F4FF000032DE90C0001ABFFF7A0
:10161000DFFBDDF840E012B0704700BFEC4600B5DC
:101620002DE900502DE9FF1F4FF000032DE90C00BC
:1016300001AAFFF751FCDDF840E012B0704700BF8F
:10164000027A03467AB9427AA2B14168013A10B4EB
:101650004272086803220C1D1A7202025C60000EBE
:1016600010BC1A6070470068013A1A7202021A60D0
:10167000000E7047B020704700B585B0002303AA64
:10168000009219460C22FFF7DDFB039805B05DF8C8
:1016900004FB00BFF0E700BF2DE9F043054685B02D
:1016A0000E464FF000083046FFF7CAFFB028044648
:1016B00000F0BA80070620D500F0F003802B4DD053
:1016C000902B36D0A02B60D0B02B74D0C02B00F064
:1016D0008B8000F0F803D02B0BD100F00702013211
:1016E000052342F4002201212846FFF791FD00283E
:1016F000D9D0092005B0BDE8F0838300DBB21F1DFF
:101700000DF10C0900231946CDF800900D22284652
:10171000FFF798FB039BCDF8009060064CBFDF1BE2
:10172000FF1800230D22194628460397FFF7B0FB48
:10173000B9E700F00D030D2BDBD003AF002300F061
:101740000F02194600972846FFF77CFB00230097FD
:101750000D2219462846FFF79BFBA4E73046FFF70A
:101760006FFF24022043B0F5004FC2D004010023D4
:10177000A2B219462846FFF74BFD0028B9D114F450
:10178000004F18BF4FF001088DE7C24302F0070376
:101790004FF47F621A41010702F47F624FF00003A9
:1017A00048BF42F4804219462846FFF731FD002821
:1017B0003FF479AF9DE7B1283BD0B22800F0938089
:1017C000B32841D000F0FC03B42B92D000F0070204
:1017D0000132012342F4002219462846FFF718FD82
:1017E00000283FF460AF84E7C6284AD0C72854D009
:1017F00000F0F803C02B63D0C82868D0C9287FF454
:1018000078AF3046FFF71CFF020300F00F0002F430
:10181000702201300243012105232846FFF7F8FC1E
:1018200000283FF440AF64E7B8F1000F18D0002063
:1018300060E73046FFF704FF024600283FF459AF47
:1018400010F0F003C8D054E73046FFF7F9FE02036A
:1018500000F00F03013302F470221A430123BBE7A7
:1018600003AC43460E22414600942846FFF7EAFAAD
:10187000009443460F2241462846FFF709FB4046A5
:1018800038E73046FFF7DCFE020300F00F030133B8
:1018900002F470221A4303239EE73046FFF7D0FE7E
:1018A000024600283FF425AF10F0F0037FF421AF8B
:1018B00004212846FFF7ACFC00283FF4F4AE18E7FB
:1018C00000F00F020132032342F4202284E7304665
:1018D000FFF7B6FE00F0F00200F00F031032013304
:1018E00043EA023297E700230DF10C090D22194655
:1018F000CDF800902846FFF7A5FA3046FFF7A0FE86
:1019000002064FF002040CD5039B00F07F00A040BC
:10191000184403903046FFF793FE030604F10704D2
:10192000F2D4039BCDF8009000F07F02A24003F5B3
:1019300001731A440023039219460D222846FFF72B
:10194000A7FAB0E610B5C26C536884B04FF0030C30
:1019500008321C0208461B0E01A9019402928DF860
:101960000CC08DF80D30FFF797FE04B010BD00BF1E
:1019700008B5FFF78FFE806C08BD00BF08B5FFF704
:1019800089FEC06CC379023300EB830008BD00BF41
:10199000704700BF08B5062001F0FCFF012010F0E1
:1019A000B9FD00BF002301461A46184607F02ABBBE
:1019B000431C1ED030B587B004AC0346082200217A
:1019C00020468DF80B3001F0B5FD0B4A0B4B10682B
:1019D000D3F8E450009401230DF10B0203A9A847AA
:1019E000012802D8039807B030BD4FF0FF3007B090
:1019F00030BD4FF0FF307047080000203804002051
:101A000013460A460146022007F0FCBA014B18684B
:101A1000704700BF0800002070B50C46064600F075
:101A200065F8E36A054633B1E16930469847002816
:101A3000B8BF4FF0FF35A3891B0619D4216B41B104
:101A400004F14003994202D0304600F049FB0023E4
:101A50002363616C21B1304600F042FB00236364D4
:101A600000F002FA0023A38100F000FA284670BDBE
:101A70002169304600F034FBE0E700BFB1B138B572
:101A800005460C4608B1836B4BB1B4F90C300BB969
:101A9000002038BD21462846BDE83840BCE700F0AC
:101AA000DFF9B4F90C30002BF2D0F3E700207047D7
:101AB000C0B138B50C4B1D6804460DB1AB6B4BB1D2
:101AC000B4F90C300BB9002038BD21462846BDE8DA
:101AD0003840A1E7284600F0C3F9B4F90C30002BD8
:101AE000F1D0F2E70020704708000020B1F90C2087
:101AF000F8B50C461107074642D4636842F4006209
:101B0000002BA28159DDA56A002D54D000233E6828
:101B10003B6093B212F4805253D1E16901233846FD
:101B2000A847421C63D0A389A56A5B0705D56368F3
:101B3000C01A236B0BB1E36BC01AE16902460023A4
:101B40003846A847411C3ED13B68002B3BD01D2B9B
:101B500001D0162B52D1A3892269226023F400639D
:101B600000216160A381216B3E6021B304F1400339
:101B7000994202D0384600F0B3FA00202063F8BD45
:101B80002669C6B193B2256826609A070CBF6369BF
:101B90000023AD1BA3600CE0D4F824C0E1692B4600
:101BA00032463846E047B0F1000CA5EB0C05664420
:101BB00016DD002DF0DC0020F8BDE36B002BA2DC6D
:101BC000F9E7206DB1E7B4F90C302269226023F403
:101BD0000063A3810022DB046260C4D52065C2E7F4
:101BE000A38943F040034FF0FF30A381F8BD3B6869
:101BF000002B98D01D2B06D0162B04D0A38943F0C0
:101C00004003A381F8BD3E60D5E700BF38B50D465F
:101C1000044608B1836B1BB1B5F90C0030B938BD6F
:101C200000F01EF9B5F90C000028F8D0294620462E
:101C3000BDE83840FFF75ABF38B5B8B10F4B1D6843
:101C400004460DB1AB6B4BB1B4F90C0000B938BD13
:101C500021462846BDE83840FFF748BF284600F037
:101C6000FFF8B4F90C000028F1D0F1E7044B054966
:101C70001868BDE8384000F023BD00BF0800002010
:101C800064F103080D1C000800207047014900F0B2
:101C900017BD00BF7D1A0008002070472DE9F84FDE
:101CA0002D4A4668C26300240323C0E9B8430746AF
:101CB00000F53B720423C0F8E8222146C6E902433E
:101CC0000822C6E90044C6E904447466B46106F11A
:101CD0005C0001F02FFCDFF884B0BD68DFF880A065
:101CE000DFF88090DFF88080204BC6F824A0C6E99A
:101CF000076BC6F82890C6F82C800822EB60C5E96F
:101D00000044C5E904446C66AC60AC61214605F151
:101D10005C0001F00FFCC5E9075BC5E909A9C5F83E
:101D20002C80FD68124BEB60C5E90044C5E9044412
:101D30006C66AC60AC612146082205F15C0001F0E4
:101D4000F9FB0123C5E9075BC5E90A98C5F824A09A
:101D5000BB63BDE8F88F00BF8D1C0008BD3B0008C9
:101D6000E53B0008253C0008453C0008090001004F
:101D70001200020070B568224D1E02FB05F50E46EA
:101D800005F1740100F026FF044640B100210C303B
:101D9000C4E90016A06005F1680201F0CBFB204603
:101DA00070BD00BF274B2DE9F0411E68B36B07469D
:101DB0005BB306F538764FF00408D6E90134013BF1
:101DC00004D51EE05A1C04F168041AD0B4F90C5072
:101DD000013B002DF6D11C4B6566C4E90055C4E9F2
:101DE0000253C4E90455A5610822294604F15C00A8
:101DF00001F0A0FBC4E90C55C4E911552046BDE82B
:101E0000F08135682DB12E46D7E73046FFF746FF03
:101E1000CFE74FF4D671384600F0DCFE044668B1D7
:101E20000560C0F804800C302946A06025464FF4B8
:101E3000D07201F07FFB34602E46BEE70C23306089
:101E40003B60DBE764F103080100FFFF024B03493D
:101E5000186800F035BC00BF64F103087D1A000863
:101E6000836B03B1704719E7704700BF704700BF2D
:101E7000704700BF704700BF024B0349186800F06D
:101E8000FFBB00BF08000020891C0008024B03496B
:101E9000186800F0F5BB00BF08000020991C00087E
:101EA00038B5084B084D5B1B9C1007D0043B1D4404
:101EB000013C55F804399847002CF9D1BDE8384069
:101EC0003BF0C2BEF8770408F47704082DE9F04F20
:101ED00083B002FB03F8CDE900320C9CB8F1000F8F
:101EE0003ED006468B4618B1836B002B00F08880ED
:101EF000B4F90C3099049AB207D443F40053A38187
:101F00009AB2636E23F4005363666768002FB7BF0D
:101F100000253D4665602F46930725D445460FE0D2
:101F2000216801F0F1F923683B44236021463046E3
:101F300001F0C0FBBB44EB1B002857D167681D466E
:101F4000BD423A465846EBD82A462168DDF8008063
:101F500001F0DAF9D4E90032521B2B44C4E9003213
:101F6000404603B0BDE8F08F454528BF454621688F
:101F70002A46584601F0C8F92368216B2B44236098
:101F800063685B1B6360A8EB050751B1002F40D06D
:101F900004F14003994202D0304600F0A1F800233A
:101FA00023635D44B14600E01F462146484687B39F
:101FB000D4F810B02668D4F814A02560C4E90457FA
:101FC00001F078FB616826600022C4E904BA7B1A3C
:101FD0000D4462600028E7D0019B8844A8EB070805
:101FE000B8FBF3F8404603B0BDE8F08F019BB8445E
:101FF000A8EB0508B8FBF3F8404603B0BDE8F08F46
:10200000FFF72EFFB4F90C3099049AB23FF57DAF7B
:1020100073E7DDF80080404603B0BDE8F08F00BFF5
:1020200010B5064C82B084460093206813460A46D9
:102030006146FFF74BFF02B010BD00BF0800002053
:10204000F8B5244F0C46064601F0C6FABA68556842
:10205000C4F57E630F3325F003052B4423F47F631F
:1020600023F00F03A3F58054B4F5805F07DB002154
:10207000304601F0E1FBBB682B44984204D0304667
:1020800001F0ACFA0020F8BD6142304601F0D4FB0B
:1020900001300DD0104ABB682D1B45F001055D6075
:1020A000136830461B1B136001F098FA0120F8BD3D
:1020B0000021304601F0C0FBBA68831A0F2BDEDD29
:1020C00043F001035360054B03491B68C01A0860C5
:1020D000D5E700BFA40500207C240020AC09002027
:1020E000002961D0F8B50C46064601F075FA54F89F
:1020F000042C7B4FA4F1080522F0010105EB010C33
:10210000B868DCF80430604523F0030300F08B80EE
:10211000D207CCF8043032D454F8082CAD1A11444C
:10212000AA6807F1080082426AD00CEB0304D4F8D5
:1021300004E0EC68D4601EF0010FA26000F097800C
:1021400041F001036B60CCF80010B1F5007F35D28F
:102150007A68CB0848090121013381401143796035
:1021600007EBC30257F83310083AC5E9021247F8E3
:102170003350CD603046BDE8F84001F02FBA0CEB8B
:1021800003025268D00710D4194407F10800DCF8A4
:102190000830834273D0DCF80C20DA60936041F0A1
:1021A00001036B606950D0E7704741F00103B1F55E
:1021B000007F44F8043CCCF80010C9D3B1F5206F7F
:1021C0004FEA512348D28B0903F1390003F1380259
:1021D000C300F818FB580838984259D05A6822F0C2
:1021E00003028A4202D99B689842F7D1D868C5E9B0
:1021F00002308560DD603046BDE8F84001F0EEB9A0
:102200000CEB03025268D20763D40B44DCE90212E0
:10221000CA60916043F001026A603046EB50BDE84D
:10222000F84001F0DBB90B44D10707D454F8082C6F
:10223000AD1A1344D5E90212CA60916043F001025D
:102240006A60284ABD6012689A4293D8264B30468D
:102250001968FFF7F5FE8DE7142B0AD9542B1FD808
:102260000B0B03F16F0003F16E02C300B1E71944D9
:102270008DE703F15C0003F15B02C300A9E741F0C5
:102280000103C7E90455C5E902006B60695071E7B5
:1022900079689210012404FA02F20A437A60A6E7F0
:1022A000B3F5AA7F06D8CB0B03F1780003F17702D0
:1022B000C3008EE740F25452934206D88B0C03F1D0
:1022C0007D0003F17C02C30083E74FF47E737E221E
:1022D0007FE741F001036B60CCF800104AE700BFD4
:1022E000A4050020B00900207824002000F00CB8DC
:1022F00010B4044C84461346206810BC0A4661465C
:1023000000F002B8080000202DE9F04F0C4697B00D
:1023100017461E46054608B1836BC3B1A38903F473
:102320008473B3F5847F1AD0D4F82890B9F1000FE4
:1023300000F02781012E17D036F002085BD016235B
:102340002B604FF0FF38404617B0BDE8F08FFFF725
:1023500087FDA38903F48473B3F5847FE4D1214618
:102360002846FFF753FCDFE72146284600F03CF9FA
:10237000B0F1FF3F8046E4D02369B346074400260E
:10238000002B3CD0B4F90C3040F61A02134299B23B
:1023900007D1490551D47D4A914535D043F40063B6
:1023A000A38121462846FFF731FC80460028C8D18A
:1023B000E16933463A462846C8470130C1D0216B0F
:1023C00041B104F14003994202D02846FFF788FE4C
:1023D00000232363A3892269002123F40263C4E953
:1023E0000021A381082204F15C0001F0A3F840461B
:1023F00017B0BDE8F08F2369C346002BC2D1214638
:10240000284600F037FBBDE7B4F90E100029C5DB04
:102410006A46284600F0C8F8002840F09180019BE9
:1024200003F47043B3F5004F40F08A80A38943F46E
:102430008063A3814FF48063E364002E5AD1BA46CF
:10244000BBF1000F65D1A389DA0471D5206D6268F4
:10245000216BA0EB02081346002961D0D4F83CC0E0
:10246000A8EB0C08A36B206990441B1AA8EB030887
:102470006344C24503DB08EB0302524563D8E26CB8
:10248000E169524202EA0A08002342462846C84748
:10249000013086D02369216B23600023636041B142
:1024A00004F14003994202D02846FFF719FE0023A9
:1024B0002363A389BAEB080A23F02003A38110D079
:1024C0002146284601F0F6F800287FF46AAF6368D9
:1024D0005345FFF466AF2268A3EB0A035244C4E9F4
:1024E00000230822002104F15C0001F023F84FF0E2
:1024F000000828E7B4F90E106A46284600F054F8A0
:1025000000287FF44EAF049B07EB030ABBF1000FDA
:1025100099D0216B19B16268D4F83CC0A2E7636816
:1025200022682069121AA8EB020813440021A0E7D0
:102530000123E1695A462846C847431C87D130E742
:10254000B4F90C302AE7AAEB08084044A3EB0803CF
:10255000C4E9000341B104F14003994202D0284686
:10256000FFF7BEFD00232363A38923F02003082285
:10257000A381002104F15C0000F0DCFF4FF00008B3
:10258000E1E61D232B604FF0FF38DCE6253C000818
:1025900010B4044C84461346206810BC0A466146B9
:1025A000FFF7B2BE0800002070B50C46084D034688
:1025B0000026204611461C462E600FF073FF431C78
:1025C00000D070BD2B68002BFBD0236070BD00BF16
:1025D000AC24002000F008B8024B0146186800F057
:1025E00003B800BF0800002070B50C46054608B1CE
:1025F000836B4BB3A66A002E35D0A38903F00C027F
:10260000082A24D013F4805212D10123E16928460C
:10261000B047411C08BF4FF0FF3008D0A3895A07CC
:1026200009D56268236B801A0BB1E36BC01A70BDC9
:102630005A07206DF5D41B07F9D52368002BF6D077
:1026400022699B1A184470BDFFF70AFCD2E7226882
:10265000002AD7D02169521A002AD3DDD805D1D556
:1026600002230022D2E71D232B604FF0FF3070BD04
:10267000024B01461868FFF7B7BF00BF08000020F3
:102680002DE9F041884600F538770026D7E9015456
:10269000013D0FD4A389012B05F1FF3506D9B4F90B
:1026A0000E300133204601D0C04706436B1C04F1B5
:1026B0006804EFD13F68002FE8D13046BDE8F081D3
:1026C0002DE9F8430746884600F538764FF00009B3
:1026D000D6E90154013D11D4A389012B05F1FF3541
:1026E00008D9B4F90E300133214603D03846C0472B
:1026F00049EA00096B1C04F16804EDD13668002E2C
:10270000E6D14846BDE8F8832DE9F04186B002FBEA
:1027100003F61C4601AB039301230C9F01919046E5
:10272000029605960493054608B1836BBBB1B7F9D1
:102730000C309A0406D443F40053BB817B6E23F41F
:1027400000537B663946284603AA06F0A1FD48B12E
:102750000598361AB6FBF8F006B0BDE8F081FFF731
:102760007FFBE4E7204606B0BDE8F081F0B5194CE8
:1027700089B01546226803901C4603AB05FB01F6A1
:10278000059301230F460496079606930AB1936BAF
:10279000B3B1B4F90C30990406D443F40053A381C7
:1027A000636E23F4005363661046214605AA06F0C3
:1027B0006FFD58B10798361AB6FBF7F009B0F0BDB7
:1027C00010460192FFF74CFB019AE2E7284609B058
:1027D000F0BD00BF0800002038B50C46054608B122
:1027E000836B4BB16368013B002B63600BDB236899
:1027F0005A1C2260187838BDFFF732FB6368013B32
:10280000002B6360F3DA21462846BDE8384000F02B
:10281000DBBF00BF38B50F4B1D6804460DB1AB6B75
:102820004BB16368013B002B63600CDB23685A1CCF
:102830002260187838BD2846FFF712FB6368013B19
:10284000002B6360F2DA21462846BDE8384000F0EC
:10285000BBBF00BF0800002006F068BC06F074BCD7
:1028600070B50D4E0D4D761BB61006D0002455F8F0
:10287000043B01349847A642F9D1094E094D761B15
:102880003BF0DCF9B61006D0002455F8043B0134C7
:102890009847A642F9D170BDD0770408D0770408D4
:1028A000F4770408D077040801390B291FD8DFE832
:1028B00001F0080A0C0E10121416181A1C0600F06B
:1028C00085B807F0D7BA07F0E3BA07F0EFBA07F018
:1028D00003BB00F00FB800F013B800F025B800F00B
:1028E00037B800F043B800F04FB800F05BB80020F4
:1028F000704700BF303809288CBF00200120704786
:10290000002100F001B800BF38B504460D4600F0C4
:1029100023F800B938BD2946204600F039F8B0FA4E
:1029200080F0400938BD00BF002100F001B800BFB1
:10293000FF2809D8054BC05C00F00300A0F102009D
:10294000B0FA80F0400970470020704761F003083A
:10295000002100F001B800BFFF289DBF024BC05C02
:1029600000F097000020704761F00308002100F09C
:1029700001B800BFFF289DBF024BC05C00F01000F3
:102980000020704761F00308002100F001B800BF8B
:10299000FF289DBF024BC05C00F00800002070477C
:1029A00061F00308002100F001B800BFFF2809D83A
:1029B000054BC05C00F00300A0F10100B0FA80F00C
:1029C000400970470020704761F00308A0F1300310
:1029D000092B07D920F02000413805288CBF0020A2
:1029E000012070470120704742B110B50B491046D5
:1029F000144601F039F918B9094810BD0848704764
:102A00000749204601F030F90028F5D00549204655
:102A100001F02AF90028EFD0002010BDBC320408D4
:102A200088070408801F0408014B93F828017047A9
:102A30003804002041B110B50C4620460A4901F087
:102A400013F918B9094810BD0848704707492046CE
:102A500001F00AF90028F5D00549204601F004F9F3
:102A60000028EFD0002010BDBC32040888070408FD
:102A7000801F04082DE9F0418B890C46990796B018
:102A800008D504F143030122C4E90432236016B0DF
:102A9000BDE8F081B4F90E100029064627DB6A462E
:102AA000FFF782FD002821DB019D05F47045A5F5A7
:102AB0000055B5FA85F54FF480686D094FF400674D
:102AC0004146304600F086F8B4F90C30F0B1204AA7
:102AD000F26343F08003C4F81480A3812060206176
:102AE00035BB3B43A38116B0BDE8F081A38913F049
:102AF000800519D04FF040084146304600F06AF892
:102B00000025B4F90C302F460028E0D19A05BED438
:102B100023F0030304F1430243F002030121C4E95B
:102B20000421A3812260B2E74FF480682F46C7E7F3
:102B3000B4F90E10304607F08BF910B9B4F90C3027
:102B4000CFE7A38923F0030343F001031BB2C8E7D7
:102B50008D1C000870B50C46B1F90E10002996B016
:102B600015461E4614DB6A46FFF71EFD00280FDBE4
:102B7000019A02F47042A2F50052B2FA82F24FF4C6
:102B8000806352094FF4006032602B6016B070BD54
:102B9000B4F90C10002311F08000336004D04022FF
:102BA00018462A6016B070BD4FF480632B6016B0D3
:102BB00070BD00BF024B0146186800F00BB800BFA3
:102BC00008000020024B01461868FFF789BA00BFD1
:102BD000080000202DE9F04F01F10B06162E83B0FE
:102BE000044624D8102900F2BA8000F0F5FC102623
:102BF00018220220B74F3A44A2F1080153688B42D1
:102C000000F0BA805A68D96822F003021A449D681D
:102C1000E9608D60516841F001012046516003F187
:102C2000080500F0DBFC284603B0BDE8F08F36F065
:102C3000070600F19480B14200F2918000F0CCFCD4
:102C4000B6F5FC7FC0F09681730A00F08F80042BEC
:102C500000F26B81B30903F1390003F1380CC300B2
:102C60009C4F3B44A3F108055B689D4206D10CE0F4
:102C7000002980F22B81DB689D4206D05A6822F041
:102C80000302911B0F29F3DD60463D69DFF848C25E
:102C900065457CD06A6822F00302931B0F2B00F37A
:102CA0007781002BC7E904CC80F26881B2F5007F00
:102CB00080F01681D308796801334FEA521E012251
:102CC00002FA0EF20A4357F833E0C5F808E007EBC2
:102CD000C3010839E9607A6047F83350CEF80C50E8
:102CE000831001219940914257D8114206D120F01A
:102CF00003004900114200F10400FAD007EBC009BB
:102D00004D468646D5F80C80454508D119E1002B83
:102D100080F22081D8F80C80454500F01281D8F867
:102D2000042022F00302931B0F2BF0DD2046D8E98C
:102D3000025408EB060146F00106C8F80460EC6096
:102D4000A56043F00104C7E90411C1E902CC4C605D
:102D500048F8023000F042FC08F1080502E00C23BC
:102D600023600025284603B0BDE8F08F4FF40073C0
:102D700040204FF03F0C73E7D3689A4208BF0230FF
:102D80007FF440AF3D69DFF850C1654582D17A6874
:102D90008310012199409142A7D9BD686B6823F047
:102DA0000308464503D8A8EB06030F2B7EDCDFF8AB
:102DB0002C91D7F80824D9F800300132334405EBC0
:102DC000080A00F02F8103F580530F3323F47F6B43
:102DD0002BF00F0B5946204600F02EFD411C0246F9
:102DE00000F0EF80824500F2EA80D9F804105944DF
:102DF000C9F804100B4600F04B81D7F808140131D4
:102E00001BBFA2EB0A0A5344C7F80824C9F80430D0
:102E100012F0070300F01281C3F108010A44C3F560
:102E2000805193440831A1EB0B01C1F30B0A5146C9
:102E300020460192009300F0FFFC421CDDE90032C5
:102E400000F04B81831A03EB0A0BD9F80400BA6037
:102E50004BF001030AEB0001BD425360C9F80410B6
:102E600000F02281B8F10F0F40F220816B68A8F1C9
:102E70000C0020F0070003F0010303436B604FF0E8
:102E8000050C2B180F28C3E901CC00F22D815368E3
:102E90001546D9F82C208A42D9F8302038BFC9F815
:102EA0002C108A4238BFC9F830108CE0AA1943F0C0
:102EB000010346F001066E602046BA60536000F0E0
:102EC0008DFB0835284603B0BDE8F08FD9681A4459
:102ED0009DE600BFA4050020AC050020782400205A
:102EE000B2F5206F4FEA522363D3142B00F2B8805F
:102EF00003F15C01C9005B3307EB010E7958AEF1B9
:102F0000080E8E4500F091804B6823F00303934236
:102F100002D989688E45F7D1D1F80CE07A68C5E905
:102F2000021ECEF80850CD60DAE6142B59D9542B86
:102F300000F29E80330B03F16F0003F16E0CC300AF
:102F40008EE60EF1010E1EF0030F05F108057FF469
:102F5000D9AE51E0424445465368D8F80C1043F0CE
:102F60000103536055F8083F2046D9608B6000F09C
:102F700035FBF7E6F00806F108023BE62A44204656
:102F8000536843F001035360083500F027FBE9E67E
:102F9000A919204646F0010643F001046E60C7E916
:102FA0000411C1E902CC4C60AB5000F017FB0835AE
:102FB000D8E6930903F13901C90038339CE7BD42D3
:102FC00060D0BD686B6823F0030B5E45ABEB060376
:102FD00002D80F2B3FF76AAF204600F0FFFA00251A
:102FE000C0E603F15C0003F15B0CC30038E659F85E
:102FF00008394B4540F0968010F0030F00F1FF3088
:10300000F5D17B6823EA01037B60490099423FF6D2
:10301000C4AE19B9C1E649000EF1040E1942FAD046
:1030200070466BE603F1100BD4E69A104FF00108DE
:103030007B6808FA02F21A437A6070E702EB0B0130
:103040004942C1F30B0A514620460193009200F019
:10305000F3FB431CDDE900237FF4F4AE9A46F4E66B
:10306000542B26D8130B03F16F01C9006E3343E7CD
:10307000B3F5AA7F26D8F30B03F1780003F1770CA0
:10308000C300EDE5D9F804305B44C9F80430B4E678
:10309000CAF30B0000287FF4B0AEBD6808EB0B0349
:1030A00043F001036B60F4E61546F2E6012353603A
:1030B00092E7B3F5AA7F21D8D30B03F17801C900B9
:1030C000773319E740F25452934221D8B30C03F1FD
:1030D0007D0003F17C0CC300C2E5083B9B44ABEBD5
:1030E000020B4FF0000AB0E605F108012046FEF79A
:1030F000F7FFBD68D9F804106B68CAE640F2545176
:103100008B420BD8930C03F17D01C9007C33F3E6AD
:103110004FF47E737F204FF07E0CA1E54FF47E715B
:103120007E23E9E67B6870E770B582B00546069CB1
:1031300042B10C4E0094D6F8E460B047431C0BD06B
:1031400002B070BD074B0094D3F8E4601146012330
:10315000054AB047431CF3D100228A2322602B602A
:1031600002B070BD38040020801F040870B51C46F2
:10317000104B82B01D6869B194460A4601460E485C
:103180000094D0F8E46063462846B047431C0BD057
:1031900002B070BD084B0094D3F8E460074A0123E5
:1031A0002846B047431CF3D100228A2322602B60BB
:1031B00002B070BD0800002038040020801F040801
:1031C00010B4034CD4F8E440A44610BC604700BFE0
:1031D0003804002082B049B15AB16BB113780B604A
:1031E0001278101E18BF012002B0704701A9002AF2
:1031F000F3D1104602B070476FF00100F4E700BF52
:1032000001F0FF01102A2BDB10F0070F08D010F897
:10321000013B013A8B422DD010F0070F42B3F6D19B
:10322000F0B441EA012141EA014122F007047FF0B4
:1032300000070023F0E80256083C85EA010586EA0B
:10324000010685FA47F5A3FA87F586FA47F6A5FA47
:1032500087F68EB9EED1F0BC01F0FF0102F0070253
:1032600032B110F8013B013A83EA010313B1F8D1FE
:103270000020704701387047002D06BF35460338DF
:10328000073815F0010F07D1013015F4807F02BF18
:10329000013015F4C03F0130F0BC0138704700BF69
:1032A000032A10B517D940EA010C1CF0030F04469D
:1032B0000B4623D119462046D1F800E0D0F800C0D3
:1032C000F44504F1040403F1040317D1043A032A7A
:1032D00020461946EED8541EA2B100F1FF3C013938
:1032E00001E0C3180CD01CF801EF11F8012F96452E
:1032F000A4EB0C03F5D0AEEB020010BD541EECE7BE
:10330000184610BD104610BD844641EA000313F074
:1033100003036DD1403A41D351F8043B40F8043BDC
:1033200051F8043B40F8043B51F8043B40F8043B9F
:1033300051F8043B40F8043B51F8043B40F8043B8F
:1033400051F8043B40F8043B51F8043B40F8043B7F
:1033500051F8043B40F8043B51F8043B40F8043B6F
:1033600051F8043B40F8043B51F8043B40F8043B5F
:1033700051F8043B40F8043B51F8043B40F8043B4F
:1033800051F8043B40F8043B51F8043B40F8043B3F
:1033900051F8043B40F8043B403ABDD2303211D3DF
:1033A00051F8043B40F8043B51F8043B40F8043B1F
:1033B00051F8043B40F8043B51F8043B40F8043B0F
:1033C000103AEDD20C3205D351F8043B40F8043BDF
:1033D000043AF9D2043208D0D2071CBF11F8013BDD
:1033E00000F8013B01D30B8803806046704700BFA3
:1033F000082A13D38B078DD010F003038AD0C3F1B2
:103400000403D21ADB071CBF11F8013B00F8013B93
:1034100080D331F8023B20F8023B7BE7043AD9D352
:10342000013A11F8013B00F8013BF9D20B78037027
:103430004B7843708B7883706046704788420DD913
:103440008B1883420AD900EB020CBAB1624613F81A
:1034500001CD02F801CD9942F9D170470F2A0ED85B
:10346000034602F1FF3C4AB10CF1010C013B8C44D4
:1034700011F8012B03F8012F6145F9D1704740EA9B
:1034800001039B0750D1A2F1100370B501F1200C8C
:1034900023F00F0501F1100E00F11004AC441B09DC
:1034A0005EF8105C44F8105C5EF80C5C44F80C5C50
:1034B0005EF8085C44F8085C5EF8045C44F8045C60
:1034C0000EF1100EE64504F11004E9D1013312F0BB
:1034D0000C0F01EB031102F00F0400EB031327D0D4
:1034E000043C24F003064FEA940C1E441C1F8E4635
:1034F0005EF8045B44F8045FB442F9D10CF10104B6
:1035000002F0030203EB840301EB840102F1FF3CB0
:103510004AB10CF1010C013B8C4411F8012B03F86A
:10352000012F6145F9D170BD02F1FF3C03469BE7D5
:103530002246EBE7830730B548D0541E002A3FD01F
:10354000CAB2034601E0013C3AD303F8012B9D07C0
:10355000F9D1032C2DD9CDB245EA05250F2C45EA2A
:10356000054536D9A4F1100222F00F0C03F1200E0C
:10357000E6444FEA121C03F1100242E9045542E905
:10358000025510327245F8D10CF1010214F00C0F03
:1035900003EB021204F00F0C13D0ACF1040323F080
:1035A00003030433134442F8045B9342FBD10CF051
:1035B00003042CB1CAB21C4403F8012B9C42FBD17A
:1035C00030BD64461346002CF4D1F9E70346144697
:1035D000BFE71A46A446E0E7704700BF704700BF48
:1035E00070B50E461446054608B1836B7BB1A368DF
:1035F000013B002BA36011DAA269934214DBF0B205
:103600000A2811D023685A1C22601E7070BDFEF774
:1036100027FCA368013B002BA360EDDB23685A1C49
:1036200022601E70F0B270BD224631462846BDE8C9
:10363000704004F0DDBA00BF164B70B51E68054639
:103640000C460EB1B36B7BB1A368013B002BA360AA
:1036500012DAA269934215DBE8B20A2812D0236875
:103660005A1C22601D7070BD3046FEF7F9FBA3683E
:10367000013B002BA360ECDB23685A1C22601D7009
:10368000E8B270BD224629463046BDE8704004F0DD
:10369000AFBA00BF0800002005F0C8BD05F0D8BDD6
:1036A000838903F00903092B01D000207047FEF73E
:1036B000C3BA00BFF8B50C46054610B1836B002BAA
:1036C00041D0B4F90C309F049AB207D4626E43F42F
:1036D000005322F400526266A3819AB2002196063A
:1036E000616062D450071BD4D10661D512073ED465
:1036F00043F00403A3812369002B44D0B4F90C6088
:10370000B307B7B222D12269266A6369E1692260F0
:103710002846B04700286060C8BF002038DDF8BDEB
:10372000216B0029E7D004F14003994202D02846DA
:10373000FEF7D6FCE36B636000202063002BDAD039
:10374000A36B2360F8BDFEF78BFBBAE70123A381CF
:103750001B4B1C49186807F00907FEF791FF092F5A
:10376000A681D0D121462846FEF7C0F9CBE72146F5
:103770002846FEF74BFAC0B9B4F90C30A06023F02C
:103780000803A061B4E721462846FFF773F9B5E7BF
:10379000A38905D143F020034FF0FF30A381F8BD8A
:1037A000002243F040036260A3814FF0FF30F8BD78
:1037B000092243F040032A604FF0FF30A381F8BD97
:1037C00064F10308A136000838B50C46054608B177
:1037D000836B63B121462846FFF76CFF50B9D4E9EB
:1037E0000023511C013BC4E90013107838BDFEF7DB
:1037F00037FBEFE74FF0FF3038BD00BF38B50D4B5A
:103800001D6804460DB1AB6B63B121462846FFF736
:1038100051FF58B9D4E90023511C013BC4E90013FE
:10382000107838BD2846FEF71BFBEEE74FF0FF305F
:1038300038BD00BF0800002038B5074D00220446FF
:1038400008462A600FF08EFC431C00D038BD2B6860
:10385000002BFBD0236038BDAC24002038B5D0F855
:10386000DC420CB1002038BD80210546FFF7B2F9DB
:103870000246C5F8DC0230B1031F7C3243F8044F26
:103880009342FBD1EEE74FF0FF3038BD1F29F8B56A
:10389000054609D8D0F8DC620C4617464EB156F8FA
:1038A000240046F82470F8BD162303604FF0FF3063
:1038B000F8BD8021FFF78EF90646C5F8DC0240B15D
:1038C000031F00F17C05002143F8041F9D42FBD13A
:1038D000E5E74FF0FF30F8BD1F2938B5054621D880
:1038E000D0F8DC220C466AB152F8213053B1012BDA
:1038F00016D0591C10D00025204642F82450984775
:10390000284638BD284600F003F9224601462846DD
:10391000BDE8384000F0E6B816230360012038BD4A
:10392000002038BD162303604FF0FF3038BD00BFC4
:103930001F292CD8D0F8DC2238B50C46054682B1B8
:1039400052F8243002EB84024BB1591C1AD0012BDF
:1039500016D00025204615609847284638BD01201E
:1039600038BD8021FFF736F90246C5F8DC0258B1B0
:10397000031F00217C3043F8041F9842FBD1DFE78E
:10398000032038BD022038BD4FF0FF3038BD4FF066
:10399000FF30704738B5154B1F281D6820D8D5F863
:1039A000DC22044662B152F820304BB1012B15D015
:1039B000591C0FD0002542F820509847284638BDA2
:1039C000284600F0A5F8224601462846BDE83840C2
:1039D00000F088B816232B60012038BD002038BDC8
:1039E00016232B604FF0FF3038BD00BF08000020C9
:1039F000134B1F2870B51E6809D80D46D6F8DC1287
:103A0000044649B151F8240041F8245070BD1623F2
:103A100033604FF0FF3070BD80213046FFF7DAF899
:103A20000146C6F8DC0240B1031F00F17C0C002205
:103A300043F8042F6345FBD1E4E74FF0FF3070BD3E
:103A40000800002038B50C4B1D68D5F8DC420CB1DD
:103A5000002038BD80212846FFF7BCF8C5F8DC02FD
:103A600038B1031F00F17C0243F8044F9342FBD1AD
:103A7000EEE74FF0FF3038BD0800002038B5184B96
:103A80001F281D6828D8D5F8DC22044682B152F8D8
:103A9000243002EB84024BB1591C1BD0012B17D0F0
:103AA0000025204615609847284638BD012038BDBE
:103AB00080212846FFF78EF80246C5F8DC0258B18F
:103AC000031F00217C3043F8041F8342FBD1DEE753
:103AD000032038BD022038BD4FF0FF3038BD00BF95
:103AE0000800002070B50C46084D0346002620460D
:103AF00011461C462E600EF0EDFC431C00D070BD3C
:103B00002B68002BFBD0236070BD00BFAC240020CD
:103B10000EF0D0BC0EB430B59CB01FAC4FF40172A7
:103B200054F8045BADF814200290069001F0E8FA16
:103B3000039007900A480B490A9100234FF6FF7C37
:103B40000E9313932A46234602A90068ADF816C0C7
:103B5000019402F071FC1CB0BDE8304003B0704726
:103B600008000020E13B00080CB470B59CB020AC0C
:103B70004FF401730546084654F8046BADF8143051
:103B80000291069101F0BCFA0B490A910346039396
:103B900007934FF6FF7100230E931393ADF81610A1
:103BA00032462846234602A9019402F045FC1CB087
:103BB000BDE8704002B07047E13B000810B50C460C
:103BC000B1F90E1006F004FF002803DB236D034457
:103BD000236510BDA38923F48053A38110BD00BFCA
:103BE000002070472DE9F0410C46B1F90C101F463A
:103BF000CB05054616460BD421F48051A1813B46E6
:103C0000B4F90E1032462846BDE8F04105F07AB905
:103C1000B4F90E100223002206F07AF9B4F90C1060
:103C2000EAE700BF10B50C46B1F90E1006F070F9C6
:103C3000A389421C0EBF23F4805343F480532065B4
:103C4000A38110BDB1F90E1005F014BA00000000F8
:103C50000000000000000000000000000000000064
:103C6000A2EB0300704700BF02780B78012A28BF3F
:103C70009A42F5D16DE9044540EA0104CDE90267B5
:103C80006FF0000C4FEA447212B380EA010414F0A2
:103C9000070F6AD100F0070420F0070004F00305C5
:103CA00021F007014FEAC505F0E8042314F0040FE2
:103CB000F1E804670CFA05F462EA040266EA040615
:103CC0000AD063EA0403624667EA0407664603E033
:103CD000F0E80423F1E8046782FA4CF582EA06046E
:103CE000A4FA8CF46CBB83FA4CF583EA0705A5FAB9
:103CF0008CF595B950E9022351E9026782FA4CF537
:103D000082EA0604A4FA8CF483FA4CF583EA0705E8
:103D1000A5FA8CF52543DBD09CB92DBAB5FA85F40C
:103D200024F0070427FA04F1DDE9026723FA04F31B
:103D300003F0FF0001F0FF01FDE80445A0EB0100E6
:103D4000704724BAB4FA84F424F0070426FA04F184
:103D5000DDE9026722FA04F202F0FF0001F0FF0140
:103D6000FDE80445A0EB0100704714F0030F3CD1BF
:103D700010F0030428D150F8082B51F8083B82FAC0
:103D80004CF582EA0305A5FA8CF55DB950F8042CD0
:103D900051F8043C82FA4CF582EA0305A5FA8CF549
:103DA000002DE8D02DBAB5FA85F424F0070423FAE3
:103DB00004F122FA04F202F0FF0001F0FF01FDE835
:103DC0000445A0EB010070474FEAC40420F0030053
:103DD00050F8082B21F0030151F8083B0CFA04F4C9
:103DE00062EA040263EA0403C9E710F003041AD08C
:103DF000A1EB040120F00300E40750F8042B06D0E7
:103E00000FD28B785FFAA2F4E41A06D12BB1CB78EB
:103E10005FFAB2F4E41A00D11BB920465DF8104BEA
:103E2000704701F1040150F8042BCC0721F0030185
:103E300051F8043B48D824D222F07F4482FA4CF552
:103E400094EA1325A5FA8CF50AD165B951F8043B1B
:103E500084EA0204B4EB036F0ED150F8042BEBE7B5
:103E60004FEA132355E035F07F454DD10878FDE842
:103E70000445C0F1000070474FEA126203F0FF03EF
:103E800047E002EA1C4482FA4CF594EA1345A5FA8D
:103E90008CF50AD165B951F8043B84EA0204B4EB0D
:103EA000034F0CD150F8042BEBE74FEA134330E0FB
:103EB00015EA1C4528D10B884FEA124229E04FEA47
:103EC000124203EA1C4324E002F0FF0482FA4CF59C
:103ED00094EA1365A5FA8CF50AD165B951F8043B4B
:103EE00084EA0204B4EB032F09D150F8042BEBE76A
:103EF0004FEA13630DE015F0FF0F05D10B684FEA91
:103F0000122223F07F4304E04FF00000FDE8044557
:103F1000704712BA1BBA82FA4CF482EA0304A4FA7C
:103F20008CF5B5FA85F402FA04F203FA04F34FEAC9
:103F30001260FDE80445A0EB13607047FFF794BEE4
:103F40008C461146BCF18E0F00F29180DFE81CF028
:103F500039013B0137013501330131012F012D01B9
:103F60002B01290127012501230121011F018F00B8
:103F70001D011B01190117011501130111010F0189
:103F80000D010B0109010701050103010101FF00FA
:103F9000FD00FB00F900F700F5008F008F008F0097
:103FA0008F008F008F008F008F00F300F1008F00D3
:103FB0008F008F008F008F008F008F008F008F0089
:103FC0008F008F008F008F00EF00ED00EB00E90005
:103FD0008F008F008F00E7008F008F008F00E500BB
:103FE0008F008F00E3008F008F00E1008F008F00B3
:103FF0008F008F008F008F008F008F008F008F0049
:10400000DF008F00DD00DB00D9008F008F00D700BC
:104010008F008F008F008F008F008F008F008F0028
:10402000D500D300D100CF00CD00CB008F00C90058
:10403000C700C500C300C100BF00BD00BB00B90080
:10404000B700B500B300B1008F00AF00AD00AB000A
:10405000A9008F008F008F008F008F00A7008F00B6
:104060008F008F00A500A300A1009F009D00002BE2
:1040700014BF1A46024608B5604603F03FFC0246EC
:104080005248002A18BF104608BD51487047514891
:1040900070475148704751487047514870475148E0
:1040A00070475148704751487047514870475148D0
:1040B00070475148704751487047514870475148C0
:1040C00070475148704751487047514870475148B0
:1040D00070475148704751487047514870475148A0
:1040E0007047514870475148704751487047514890
:1040F0007047514870475148704751487047514880
:10410000704751487047514870475148704751486F
:10411000704751487047514870475148704751485F
:10412000704751487047514870475148704751484F
:10413000704751487047514870475148704751483F
:10414000704751487047514870475148704751482F
:10415000704751487047514870475148704751481F
:10416000704751487047514870475148704751480F
:1041700070475148704751487047514870475148FF
:1041800070475148704751487047514870475148EF
:1041900070475148704751487047514870475148DF
:1041A00070475148704751487047514870475148CF
:1041B00070475148704751487047514870475148BF
:1041C0007047514870475148704700BF801F04082E
:1041D000343904081C390408083904086C39040807
:1041E000643604089C350408D4380408EC38040804
:1041F000D8340408983804080C37040894390408A3
:10420000A0330408683304087034040870350408C7
:1042100060340408A8390408B43404088836040853
:10422000B0380408803804085038040838380408C6
:1042300018380408F8370408C8370408A4370408F5
:1042400064380408483904088C37040870370408B7
:104250005C37040840370408343704082037040862
:10426000FC360408E4360408D0360408B8360408DE
:10427000C0370408A8360408A03604087C360408B1
:10428000503604083436040820360408F035040893
:10429000E4350408D4350408BC350408AC350408FA
:1042A000843504086035040850350408383504089E
:1042B00018350408F8340408A034040890340408BD
:1042C00050340408403404082C3404082034040812
:1042D00008340408FC330408E8330408D433040821
:1042E000C0330408943304088433040854330408A6
:1042F0004033040824330408183304080033040846
:10430000F0320408D4320408C0390408C832040862
:10431000034A0023014610681A46FFF711BE00BF8A
:1043200008000020034A0023014610681A46FFF7E0
:1043300007BE00BF080000204269002A40F26C73EB
:10434000A8BF6FF063031344920710B408D14B4C1D
:104350004B4A4C4904FB0322B1EBB20FC0F08B80F7
:10436000474A464C484904FB0323B1EB331F2CBF9B
:1043700001220022D0E906315B0003EB0113134454
:10438000212B23DDA3F5B553023B352B20D8352B4C
:104390001ED8DFE803F06D1D1D1D1D1D1D1D1D1DFB
:1043A0001D1D1D1D1D1D6D6D6D1D1D1D1D1D1D1D4D
:1043B0001D1D1D1D1D1D6D6D6D6D6D1D1D1D1D1D9D
:1043C0001D1D1D1D1D1D1D6D1D6D1D6D002B02DA9A
:1043D000002010BC7047212BFAD801A252F823F01C
:1043E0006944000869440008D1430008D14300082B
:1043F000D1430008D1430008D1430008D14300084D
:10440000D1430008D143000869440008694400080A
:104410006944000869440008D1430008D1430008FA
:104420006944000869440008D1430008D1430008EA
:10443000D1430008D1430008D1430008D14300080C
:10444000D1430008D1430008D1430008D1430008FC
:104450006944000869440008D1430008D1430008BA
:1044600069440008694400084FF0FF3010BC7047F1
:10447000012010BC704701227CE700BF295C8FC27D
:1044800050B81E05285C8F020AD7A3002DE9F04F13
:10449000144612788FB083460E4652B91546002E48
:1044A00000F0C480002328460BF805300FB0BDE8AB
:1044B000F08F1F46252A4FF0000302931D460CD0B3
:1044C000731EAB4240F2B1800BF805200134013578
:1044D0002278002AE3D0252AF2D194F80180B8F19D
:1044E000300F00F0AA80B8F12B0F00F0A6804146F3
:1044F000A1F13103082B04F101044FF0000840F250
:10450000A4804FF00009452900F094804F2900F065
:104510009180A1F12502552A00F28780DFE812F090
:1045200010028500850085008500850085008500D6
:104530008500850085008500850085008500850053
:104540008500850085008500850085008500850043
:1045500085008500850085005302740219014C0115
:1045600085006D01A001B400BB00850085008500B9
:1045700030028500850056008500030220042304D4
:104580003204F5015B036B0372039303850085001E
:1045900085008500850085003302D10019029E0048
:1045A0009E008500ED00D10085001101B400BB0024
:1045B000150194028500560085009D02A40239036E
:1045C0004E0385003704C503CC03DA03BB680B2B0D
:1045D000954BD4BF0022012203EB8203D3F8A480C1
:1045E000404600F08DFD002848D006F1FF3EAE4564
:1045F0001BD94346691EDFF8348228445944227887
:10460000502A1A7808D112F808C00CF0030CBCF13B
:10461000010F04BF2032D2B20135854201F8012FCB
:1046200003F101032AD07545E9D3002528460FB0D0
:10463000BDE8F08F617801346BE7A178A1F1310317
:10464000082B04F102043FF65CAF204606A90A22BB
:1046500001F0C8FE069C8146217854E7744B754AE8
:10466000642918BF1A46FB68711B0BEB050006F0A6
:1046700095FC0028D9DB0544AE42D6D92378002B1F
:104680003FF40DAF013423E76A4B694A6B2918BF29
:104690001A46BB68E8E7BB68002B00F0A5830C2B2B
:1046A00009D0654A82FB0320DA17C2EB600202EBF5
:1046B0004202A3EB82035F485D4A492908BF0246D4
:1046C000D2E73A69584B53F82280404600F018FD73
:1046D0000028D3D006F1FF3CAC45A6D96A1E08F1EC
:1046E000FF3328445A44013513F8011F02F8011F13
:1046F0008542C3D06545F6D397E73846FFF71CFEE1
:10470000804678690028C0F26F844C4B83FB0023FD
:10471000C217C2EB6312642303FB1202DFF81CC151
:1047200042448CFB0213D1176420C1EB631100FBE0
:1047300011220244ACFB02135B0900FB13233D4A28
:1047400092E7FB693E4A01338EE73B69394A013300
:104750008AE73C49D7F814A08A45ACBF0021012163
:10476000BAF1000FC0F22884344B83FB0A234FEACE
:10477000EA72C2EB631303F1130CB8F1000F00F0FF
:104780007E83BCF1630F40F3D1832F4A2F4BB8F1E6
:104790002B0F18BF13462E4ADFF8A8E02D48B9F1B9
:1047A000020F38BF4FF00209F245B8BF03460BEBCA
:1047B0000500A6EB050E6DE378693B69002803F15F
:1047C00001080BEB0509FB68A6EB050AC0F2E483C0
:1047D0001A4A82FB0021C217C2EB6112642101FB5D
:1047E0001202CDE9003251461B4A4346484606F0C4
:1047F000D5FB0028BFF63FAF17E725238DF818300B
:10480000B8F1000F40F0CD822B238DF8193004232E
:104810000DF11A08114A1E21404606F0BFFB002880
:1048200040F3CC824044CAE2DCF1030861F00308A3
:10483000E8390408E0390408ABAAAA2A1F85EB511D
:104840000C3A040894F8FFFF801F0408D8390408C4
:10485000C8390408DC390408EC390408FC390408B8
:10486000D04BD7F814A09A45ACBF0023012338469B
:104870000393FFF761FDBAF1000F0146C0F26283B6
:10488000C94B4FEAEA7083FB0A23C0EB631313336F
:104890005246C548A0FB02C040094FF0640E0EFB13
:1048A00010200029C0F2BF8200F0D983DFF8F4C2E3
:1048B000E245C0F2FB82002203920844421C00F051
:1048C000BB82642804BF01330020642202FB03037F
:1048D000039A002A40F09C81B8F12B0F40F08082AF
:1048E00042F20F72934240F2C2838DF81880B9F100
:1048F000000F40F06A820DF119000DF1180A25220F
:10490000027030224270023094E13846FFF714FD05
:10491000BA69002A00F06A82013A002840F38F82C7
:104920000123A24AA0E67B680093BB68A04A711BE2
:104930000BEB050006F032FB0028BFF69CAE74E6D8
:10494000731EAB427FF671AE25230BF8053001359F
:1049500094E6984BD3F8A080404600F0D1FB98F83D
:104960000030002B3FF48AAE42463B46711B0BEBF6
:104970000500FFF78BFD00287FF757AE05447DE665
:104980007B688A4A70E6BB698A4A183352F82380EA
:10499000404600F0B5FB00283FF470AE06F1FF3C46
:1049A000AC457FF642AE6A1E08F1FF3328445A44F4
:1049B000013513F8011F02F8011F85423FF45EAE76
:1049C0006545F5D331E6BA697A4B03EB8203D3F838
:1049D0007C80404600F094FB00283FF44FAE06F187
:1049E000FF3C6545BFF421AE6A1E08F1FF33284441
:1049F0005A44013513F8011F02F8011F85423FF4A4
:104A00003DAE6545F5D310E63B696A4A0C3352F872
:104A10002380404600F074FB00283FF42FAE06F1DF
:104A2000FF3C6545BFF401AE6A1E08F1FF33284420
:104A30005A44013513F8011F02F8011F85423FF463
:104A40001DAE6545F5D3F0E5731EAB427FF6EDADC7
:104A50000A230BF80530013510E6564BD3F8E480F5
:104A6000404600F04DFB7AE73B6A002B80F2C081A4
:104A70004FF00009CDF81090D7F814C0BCF14503F1
:104A80004FEAEC7868F10008B8F1000FA6EB0501D9
:104A90000BEB050002DA033348F10008DFF808A148
:104AA0000CF1FF3E0CF22B12ACF1460CCDF80CC011
:104AB0009B088AFB0ECA4FEAEE7ECEEB6A1E43EAE3
:104AC0008873DFF8E4A04FEAA808B3EB0E0368EBA5
:104AD000EE7E8AFB02C8D217C2EBE812DDF80CC0EA
:104AE0009B184EEBE27240F26D1E0EFB0CFE13EBB8
:104AF0000E0C42EBEE73FA691CEB020C43EBE27313
:104B00001CEB0C0243EB030E12EB0C0243EB0E0307
:104B1000D7F808C0DB0043EA5273D20012EB0C0E48
:104B200043EBEC731A014FEA0E1CBCEB0E0C42EA8D
:104B30001E7262EB03039A0042EA9C724FEA8C03F6
:104B4000D7F804C013EB0C0E42EBEC7C4FEA0C12CE
:104B50004FEA0E13B3EB0E0342EA1E7262EB0C0235
:104B60009200D7F800C042EA93729B0013EB0C034B
:104B700042EBEC72DDF810C0B3EB090362EB0C0200
:104B8000CDE900320C4A06F009FA0028BFF673ADF1
:104B90004BE5731EAB427FF648AD09230BF8053099
:104BA00001356BE594F8FFFF1F85EB51E0390408F0
:104BB000143A0408DCF10308203A0408731EAB42DF
:104BC0007FF633ADBB69002B40F0E68037230BF84E
:104BD0000530013552E5BA69002A00F0F980013A42
:104BE000FB6907339A1ABF4B83FB02131344D21796
:104BF000C2EBA30395E6BC4BD3F89880404600F087
:104C00007FFAACE67B69B94A934280F2E380D31A1B
:104C10002D228DF81820B9F1000F40F0D6800DF14B
:104C200019000DF1180A25220270B8F1000F7FF467
:104C300068AE0130AE49039306F030FA039B00934F
:104C400052464B4673E63B6A002BFFF61BAD02F063
:104C5000A1FC029B002B00F01B823B6AA54A002BA3
:104C6000D4BF0023012352F82380404600F048FAC5
:104C7000002800F01A8206F1FF3CAC4540F2F381B7
:104C80006A1E08F1FF335A4400EB050802E065454F
:104C900080F0E981013513F8011F02F8011F454535
:104CA000F5D102F079FC454657E08F4BD3F89C8054
:104CB000404600F025FA52E678690028C0F2678184
:104CC0008D4B83FB0032C317C3EB6213642202FBDC
:104CD000130326E63B6A002BFFF6D4AC02F05AFC25
:104CE000029B002B00F0FA8005F0AEF83B6ADFF87B
:104CF0000CA2002BD4BF00230123013303EB830359
:104D000050F83330C3F1000802F046FC8AFB08304B
:104D10004FEAE8794044C9EB601005F0EBF88AFBF4
:104D200000230344C217C2EB6312754BC2EB02129D
:104D3000A0EB820083FB082343440090714AC9EB37
:104D4000E3230BEB0500711B06F028F90028FFF6A2
:104D50006CAC0544AE427FF668AC012302938DE44F
:104D60003B68694A80E43B6801937B680093BB68B9
:104D7000664A711B0BEB050006F010F90028BFF620
:104D80007AAC52E4FA69BB690732D21A2BE7731E78
:104D9000AB427FF64AACBB6930330BF805300135C6
:104DA0006CE4B9F1060F38BF4FF00609B9F10603FC
:104DB0008DF819807FF42CAD0DF11A084046544946
:104DC00006F06CF93B4606AAD0E509F1FF3926E763
:104DD000062205E7B8F12B0F03F26C7300F01E8179
:104DE0000DF1180A50461EE70C2364E4062294E5F0
:104DF00002F0D0FB029B002B6DD005F025F83B6A3A
:104E0000002BD4BF00230123013303EB830350F8AD
:104E10003330C3F1000902F0BFFB012302934FEAD4
:104E2000E973049328E63B4AD7F814C094454FDB56
:104E30000844411C7FF449AD013B632045E5FB6913
:104E40003CD079690029A2EB030340F26B72A8BF42
:104E50006FF064021144880740F0F2802E48DFF8BA
:104E6000BCC02F4A0CFB0100B2EBB00F80F0E88011
:104E700001229B1A052BB4BF3523342351E5B9F128
:104E8000020F284A284B38BF4FF002090BEB0500F0
:104E9000A6EB050EA9EB0101CDE9001C714606F059
:104EA0007DF80028BFF6E7ABFFF7BFBB421E002826
:104EB00000F0E880642101FB0323A9E60A339B1A72
:104EC000084A82FB03121A44DB17C3EBA20328E54E
:104ED00001210391F1E402F061FB8EE702F05EFB39
:104EE00002E700BF93244992DCF1030894F8FFFF26
:104EF000083A0408B40900201F85EB518988888886
:104F0000C5B3A291383A0408E0390408283A0408E5
:104F1000003A040895F8FFFF50B81E05295C8FC2BF
:104F2000285C8F02D0390408801F0408B9F1020FF1
:104F30005F4A604B38BF4FF002090BEB0500A6EB50
:104F4000050EA7E704900AF26C7004F08FF85A4B34
:104F50007A69049983FB003E002A4FEAE073C3EBB1
:104F60006E13BFF696AC02F26C70CDE9043104F01A
:104F70007DF8514B844683FB003EC017C0EB6E109A
:104F80004FF0640EDDE904310EFB10C089E400F23D
:104F90006C7004F06BF893E600F26C70039304F00D
:104FA00065F8454BC21783FB0031C2EB61126421E7
:104FB000039B01FB120214E40AF26C70039104F0EB
:104FC00055F83D4B039983FB003CC317C3EB6C1CA6
:104FD000B8F1000F3FD042F20F7398423FF7D5ABC4
:104FE000344B334AFFF7D8BB00F26C7004F03EF844
:104FF000314B83FB0023C217C2EB6312B8F1000FE1
:105000004FF0640303FB120245DA7969A3F2CF7310
:105010009942B8BF4FF00108FFF780BB42F20F7210
:10502000934228D98DF81880B9F1000F7FF4CDAEE6
:1050300025228DF819200DF119000DF1180A60E4F0
:105040001E4A1F4800FB01211E4AB2EB311F2CBF34
:10505000012200220DE7174B1B4AFFF79DBB421CA4
:105060007FF433ACE8E602F097FAFFF7DEBA0DF111
:10507000180A504643E425220DF1180A8DF818202D
:1050800050463EE4013B642202FB03F36333BFE579
:1050900002F084FAE1E53FF441AB0C4B79699942A7
:1050A000B8BF4FF0FF38FFF739BBA846F9E500BF9E
:1050B000C8390408801F04081F85EB5150B81E052D
:1050C000295C8FC20AD7A300D039040894F8FFFFE7
:1050D000FFF7DCB9FFF7DAB90000000000000000BC
:1050E00000000000000000000000000000000000C0
:1050F00000000000000000000000000000000000B0
:1051000090F800F06DE9024520F007016FF0000C07
:1051100010F0070491F820F040F049804FF00004AF
:105120006FF00700D1E9002391F840F000F108008A
:1051300082FA4CF2A4FA8CF283FA4CF3A2FA8CF3C2
:105140004BBBD1E9022382FA4CF200F10800A4FA29
:105150008CF283FA4CF3A2FA8CF3E3B9D1E904237D
:1051600082FA4CF200F10800A4FA8CF283FA4CF3B4
:10517000A2FA8CF37BB9D1E9062301F1200182FA6E
:105180004CF200F10800A4FA8CF283FA4CF3A2FA74
:105190008CF3002BC6D0002A04BF04301A4612BA82
:1051A000B2FA82F2FDE8024500EBD2007047D1E985
:1051B000002304F00305C4F100004FEAC50514F014
:1051C000040F91F840F00CFA05F562EA05021CBFE5
:1051D00063EA050362464FF00004A9E700000000FF
:1051E0002DE9F04F1C46984B1B68A1B00025814665
:1051F0001846884608921C950493FFF781FF00210A
:1052000083460020CDE90601CDF86C804246174662
:1052100012F8013B2D2B2FD8DFE813F0A1002E0050
:105220002E002E002E002E002E002E002E00AF008D
:10523000AF00AF00AF00AF002E002E002E002E00FA
:105240002E002E002E002E002E002E002E002E00EE
:105250002E002E002E002E002E002E00AF002E005D
:105260002E002E002E002E002E002E002E002E00CE
:105270002E0006042E00FC0300220A92302B7ED062
:10528000002209922F2B1C4640F233854FF0000A72
:1052900038465646554612E00130082D1B90C8BFCF
:1052A0000AEB8A0A0478C6BF03EB4A03A3F1300A6B
:1052B000A2F130062F2C05F10105234670DD06EB27
:1052C0008602392C03EB4202E6DD04995A4605F0CA
:1052D00043FF0346002835D11B9A11465A441B92BE
:1052E00011F80B40002D40F0AC85302C40F0648567
:1052F000C2F10101531801321B921478302CF9D0FD
:10530000A4F13102082A00F23883A4F1300E1B9C6C
:1053100003F1010B002301252746049306EB8606C3
:105320000EEB46060023621C1B926478A4F1300148
:10533000092900F2ED8201338E46002940F0B8843D
:105340001B9CF0E70023652C04959B469E4601D0EC
:10535000452C32D1002D7CD1099A1A4378D1089B73
:1053600013B1089BC3F800804FF0000BCDF810B0CC
:105370000499584621B0BDE8F08F1B9247E77B782F
:1053800003F0DF03582B00F0748401371B973B7840
:10539000302BFAD0002B00F0CC800122099271E76B
:1053A00004995A4605F0D8FE0346002800F0D6803E
:1053B00004954FF0000B5B46DE4600220B92002D59
:1053C00000F09380049A1346002A08BF2B4630460B
:1053D0000493FBF77BF80B460246CDE906230B9BB3
:1053E000102DA3EB0B032C46A8BF1024092D0E9300
:1053F00013DD164B03EBC40353E912230CF03CFD01
:10540000CDE906015046FBF761F802460B46DDE99F
:105410000601FAF71FFFCDE906010F2D00F3A78063
:105420000E9B002B00F018840E9B40F39283162BEA
:1054300040F3F9840E9AC5F12503934280F20C855E
:105440000E9B2C1B1C4498E0D8F30308F8F30308C8
:105450000025DDF86C8008F101021B9298F80140EC
:105460002B2C00F087822D2C00F0218200220E923E
:10547000A4F13002092A00F21582302C05D11B9AC2
:1054800001321B921478302CFAD0A4F13102082A90
:1054900093D81B990B914A1C1B92A4F130004C78B5
:1054A0002F2C09DC00F034BC01321B929CF8014027
:1054B0002F2CA1F1300006DD00EB8001392C944641
:1054C00004EB4101F0DD0B99521A082A40F32084C5
:1054D00044F61F620B920E9A002A3FF470AF0B9AAB
:1054E00052420B92002D7FF46DAF099A134320D1E5
:1054F000BEF1000F7FF433AF692C00F03B8400F362
:105500004183492C00F036844E2C7FF428AFAC49FF
:105510001BA804F061FB00283FF421AF1B9B1B7804
:10552000282B00F06D85A74805F054FC83460491B4
:1055300003E04FF0000BCDF810B0089A0AB11B9BA6
:1055400013600A9B002B3FF413AF049901F1004351
:1055500004930499584621B0BDE8F08F1B9A049536
:1055600002EB0B011B9112F80B409B46DEE60E9BF3
:105570002C1B1C44002C40F30A8314F00F000AD0AB
:10558000914901EBC001DDE90623D1E900010CF0EE
:1055900073FCCDE9060134F00F0340F08B82002349
:1055A0000993049A00962B463946484604F05AFD62
:1055B0001390002800F055830B9BABEB03000E9B70
:1055C000002BB4BF024600220F9223EAE3730022AD
:1055D000934612939046139C4846616804F0C2FCBF
:1055E0000746002800F0418122690232920004F14E
:1055F0000C010C30FDF788FEDDE9060104910B4635
:105600001EA901911DA90B9002460091484605F084
:10561000D5F81C90002800F018810121484604F0BC
:10562000C9FD8046002800F020811D9B002BC0F2A0
:105630000F810F9A129D9E18099A1E9C9B1A234453
:10564000624A013B9342C4F1360480F2AE80D21A22
:105650001F2AA4EB020400F31D814FF0010A00236E
:105660000AFA02FA0C93099B25443444A6421D44CD
:105670003346A8BF2346AB42A8BF2B46002B02DD12
:10568000E41AED1AF61A0F9B002B00F3BE80002CD3
:1056900000F3D2800E9B002B00F3DE80002D00F380
:1056A000EF80002E08DD41463246484604F0BEFE3B
:1056B0008046002800F0D9801C993A46484604F0FC
:1056C0004DFF8346002800F0D0800026C368C660E6
:1056D0004146109304F022FFB042C0F2638400F010
:1056E000D2834146584605F0CBF800224FF0804364
:1056F00004460D46FAF7CEFF00286FD0109B002B12
:1057000000F0E180079B1193314B314C0022CDE931
:105710000C2335462F4E119A2F4B02EA060A9A4562
:1057200000F0FC80099B93B1BAF1D46F0FD822A38B
:10573000D3E9002328462146FAF7ACFF002840F0C1
:1057400087810D9B03F1D663A3EB0A030D93049E9F
:105750000B98DDE90C233146CDE9042304F0A4FFC6
:1057600002460B46DDE904010CF086FB33460B9A3A
:10577000FAF770FDCDE906010E46099B23B9154BDA
:1057800033409A4500F002811C99484604F010FC11
:105790003946484604F00CFC4146484604F008FCF3
:1057A0005946484604F004FC15E700230C934FF0DB
:1057B000010A58E7AFF300800000C0FFFFFFDF41A0
:1057C000503A0408801F0408F8F3030802FCFFFFA6
:1057D0000000F03F0000F07F0000E07FAE4B20466D
:1057E000294600220CF048FB109B024605460C4659
:1057F000002B64D101F1004314901593079B119382
:10580000DDE91423CDE90C2384E741461A464846D6
:1058100004F0ACFD804640B301461C9A484604F0B3
:10582000F7FC10B310901C99484604F0C1FB109B84
:105830001C93002C7FF72EAF1C992246484604F09B
:10584000F5FD1C9000287FF425AFBA465E460FE0B8
:10585000129A0F9ED51AEFE63946129A484604F07E
:1058600085FD074600287FF419AFBA465E461C98AE
:105870002223C9F80030894B04934FF0000BB4E0A9
:1058800039462A46484604F0D1FD074600287FF4F1
:1058900008AFEAE7824A4FF0010AD31A0AFA03F383
:1058A0000C93E0E60022CDF86C800B9287E5012294
:1058B0000E9208F102021B9298F80240D8E50B46BE
:1058C000CDE914239AE7DDE90612002940F0AF8004
:1058D000C2F313031192002B40F0AF80714B0022F2
:1058E00020462946FAF7CCFE002840F0AE826A4BEB
:1058F0002046294600220CF0BFFA01F1004305467C
:105900000C4618901993DDE91823CDE90C2301E723
:10591000652C4FF0010E3FF49CAD19E5A2F15473D4
:105920000793DDE90623DDE90C01CDE90601104608
:105930001946CDE90C2304F0B7FE02460B46DDE91B
:1059400006010CF099FADDE90C23FAF783FC564ABC
:105950000E409642CDE9060176D9049A534B9A42FD
:1059600002D10B9B013380D0504A4FF0FF33CDE979
:10597000063209E700220E929BE7652C00F0FB80BF
:10598000452C00F0F8804FF0010EAEE52846214688
:105990000CF048FDFAF7E6FD0B4602462146284684
:1059A000FAF756FC109C069DC6F3130644EA050C54
:1059B0005CEA060304460D4600F0C28032A3D3E938
:1059C0000023FAF75DFE48B931A3D3E9002320464E
:1059D0002946FAF773FE00283FF4D6AEDDE9063417
:1059E0001C9804945E46BA469B460146484604F01D
:1059F000DFFA5146484604F0DBFA4146484604F0D7
:105A0000D7FA1399484604F0D3FA3146484604F0D1
:105A1000CFFA92E501230A937A1C1B927B78002B24
:105A20003FF49DAC174629E400230A93F4E7DDE92F
:105A30000612012900F0748111921D4B194C0022AD
:105A4000CDE90C23002565E601F15476079694E62E
:105A5000214628460CF060FC012838BF0120FAF7E7
:105A600035FD109B024605460C46002B40F069812F
:105A700001F1004316901793DDE91623CDE90C23BD
:105A80005FE600BFAFF300809535A094FFFFDF3FD6
:105A900035E5AF350000E03F0000E03F0000F07F5B
:105AA000E2FBFFFF0000F03FFFFF9F7CFFFFEF7F67
:105AB0000000F0BFB3F59A7F00F3D380102B4FEABC
:105AC0002314A54B40F3C682DDE9060198460993ED
:105AD00000239A4614F0010F0AF1010A4FEA640408
:105AE00004D0D8E900230CF0C7F90123012C08F1F8
:105AF0000808EFD10BB1CDE90601099B03EBCA0100
:105B0000079BA3F154730793DDE90623D1E9000154
