:020000040800F2
:100000000648074B10B5834204D0064B002B01D0A5
:1000100000F04EF810BC01BC0047C04600000020B4
:10002000000000200000000008480949091A8B1050
:10003000C90FC91810B5491004D0064B002B01D0C8
:1000400000F036F810BC01BC0047C046000000209C
:10005000000000200000000010B5084C2378002BA1
:1000600009D1FFF7CDFF064B002B02D00548AFF3B7
:1000700000800123237010BC01BC00470000002059
:1000800000000000B4000008064B10B5002B03D0A0
:1000900005490648AFF30080FFF7C6FF10BC01BC5E
:1000A0000047C0460000000004000020B400000823
:1000B0001847C046F8B5C046F8BC08BC9E46704715
:0C00C000F8B5C046F8BC08BC9E4670476E
:0400CC00890000089F
:0400D00059000008CB
:0400000508000000EF
:00000001FF
