:020000040800F2
:10000000000002200D0E0008550E0008550E0008D5
:10001000550E0008550E0008550E0008000000009F
:10002000000000000000000000000000550E000865
:10003000550E000800000000550E0008550E00087F
:1000400000000000000000000000000000000000B0
:1000500000000000000000000000000000000000A0
:100060000000000000000000000000000000000090
:100070000000000000000000000000000000000080
:100080000000000000000000000000000000000070
:100090000000000000000000000000000000000060
:1000A0000000000000000000000000000000000050
:1000B0000000000000000000000000000000000040
:1000C0000000000000000000000000000000000030
:1000D0000000000000000000000000000000000020
:1000E0000000000000000000000000000000000010
:1000F0000000000000000000000000000000000000
:1001000000000000000000000000000000000000EF
:1001100000000000000000000000000000000000DF
:1001200000000000000000000000000000000000CF
:1001300000000000000000000000000000000000BF
:1001400000000000000000000000000000000000AF
:10015000000000000000000000000000000000009F
:10016000000000000000000000000000000000008F
:10017000000000000000000000000000000000007F
:08018000000000000000000077
:100188000648074B10B5834204D0064B002B01D01C
:1001980000F04EF810BC01BC0047C046000000202B
:1001A800000000200000000008480949091A8B10C7
:1001B800C90FC91810B5491004D0064B002B01D03F
:1001C80000F036F810BC01BC0047C0460000002013
:1001D800000000200000000010B5084C2378002B18
:1001E80009D1FFF7CDFF064B002B02D00548AFF32E
:1001F80000800123237010BC01BC004700000020D0
:1002080000000000580E0008064B10B5002B03D064
:1002180005490648AFF30080FFF7C6FF10BC01BCD4
:100228000047C0460000000004000020580E0008E7
:100238001847C04670B50E4D0E4E761BB61006D048
:10024800002408CD013400F01BF8A642F9D100F0D3
:10025800FFFD094D094E761BB61006D0002408CDC7
:10026800013400F00DF8A642F9D170BC01BC00477A
:100278008C0F00088C0F00088C0F0008900F0008E6
:100288001847C04682B00023019340F6FE72019BD6
:10029800934201D902B07047019B01330193F6E7FD
:1002A8007047704710B50446207800F051F914F8EB
:1002B800013F002BF8D110BDF8B504460E460025C5
:1002C800B5420CDA671900F031F960550028FAD008
:1002D8000A2802D100233B70F8BD0135F0E7344409
:1002E800002304F8013CF7E710B58CB000F070F873
:1002F80000F0AEF800F0EAF82A4B186802909B88E4
:100308002948ADF80C30FFF7CDFF2848FFF7CAFFA2
:100318002748FFF7B7FFFFF7C5FF2648FFF7B2FFEB
:10032800FFF7C0FF2448FFF7ADFFFFF7BBFF2348E7
:10033800FFF7A8FFFFF7B6FF2148FFF7B3FF00F06C
:10034800EDF82048FFF7AEFF202104A8FFF7B4FF1F
:1003580000F0DCF802A904AA062311F8014B12F8F0
:10036800010B84421BD1013B13F0FF03F5D1164862
:10037800FFF798FF0120FFF793FF0FE0019B013380
:100388000193019B002BF9DD1048FFF77BFFFFF776
:1003980079FFFFF787FF0120FFF783FFFEE70023C0
:1003A800EEE700BF860F0008700E0008930E0008E5
:1003B800B00E0008CD0E0008EA0E0008070F00086E
:1003C8000A0F0008390F00086C0F00085D0F0008BD
:1003D80030B5032293B04FF4A023CDE906230221C0
:1003E8004FF48003CDE90C130C20C423CDE90E0390
:1003F80004240723012506A8CDE91043099500F038
:10040800BFF8044600B1FEE70146CDE903000F231B
:10041800059001A8CDE9013500F052FA094B009486
:100428005A6B094842F040025A635B6B03F0400381
:100438000093009B054B0360447100F0C5FC13B0AA
:1004480030BD00BF003802401C00002000080650E4
:1004580030B5022389B04FF4C062CDE903230122ED
:10046800CDE90523154C1648002507230195079368
:10047800236B13432363236B1340019303A9019B4D
:1004880000F0B6FA0F48104902954FF46133C0E9FD
:100498000313C0E905550C23C56145620362636C0B
:1004A80043F010036364636C03F0100302930C3091
:1004B800029B00F089FB09B030BD00BF0038024044
:1004C800000002401C000020001001407FB50D4BC9
:1004D8000D48002100911A6B42F001021A631B6B50
:1004E800039103F001030093009B4FF48052012312
:1004F800CDE9012301A90223049300F079FA07B09A
:100508005DF804FB00380240000002400248012266
:100518004FF4805100F052BB000002400248002214
:100528004FF4805100F04ABB0000024013B5074C5D
:1005380041F2883301220DF10701204600F0F7FB54
:100548000028F5D19DF8070002B010BD2800002052
:1005580007B541F288338DF8070001220DF1070134
:10056800024800F09FFB03B05DF804FB2800002060
:10057800024B1868421C1A60704700BFB800002080
:10058800036873B5DE0701463BD40B689D0700F18D
:100598008B800B68180700F1D6800B685A072AD59C
:1005A80000230193914B924C1A6C42F080521A64CA
:1005B8001B6C03F080530193019B236843F4807301
:1005C8002360FFF7D5FF05462368D80540F1DF8093
:1005D8008B68864C012B40F0E180236F43F00103C8
:1005E8002367FFF7C5FF814D044641F288362B6F1C
:1005F8009A0740F1F4808A69002A40F0FF800020C1
:1006080015E07A4B9A6802F00C02042A07D09A681F
:1006180002F00C02082A0CD15A68540209D5734B0F
:100628001B689803B1D54B68002BAED1012002B0EE
:1006380070BD4A68B2F5803F12D11A6842F4803220
:100648001A60FFF795FF694D6A4E04462B689A03B6
:100658009BD4FFF78DFF001BB042F7D90320E6E7D4
:10066800624CB2F5A02F236807D143F4802323609E
:10067800236843F480332360E3E723F48033236063
:10068800236823F480232360002ADAD1FFF770FF60
:10069800584E054623689B037FF577AFFFF768FF41
:1006A800401BB042F6D9D9E7504B9A6812F00C0FAC
:1006B80007D09A6802F00C02082A16D15B68580223
:1006C80013D44A4803689A0702D5CB68012BADD1E9
:1006D8000468F82393FAA3F3B3FA83F20B699340FF
:1006E80024F0F8021343036053E7CA68424BDAB1B7
:1006F80001221A60FFF73CFF3C4C054623689B0724
:100708000CD52068F82393FAA3F3B3FA83F20B69A4
:10071800934020F0F802134323603AE7FFF728FFDD
:10072800401B0228EAD999E71A60FFF721FF2F4DED
:1007380004462B689E077FF52CAFFFF719FF001BB7
:100748000228F6D98AE74A692B4B82B10122C3F8FD
:10075800802EFFF70DFF254D04466B6F9B073FF575
:100768001CAFFFF705FF001B0228F6D976E7C3F890
:10077800802EFFF7FDFE1D4D04466B6F9E077FF52B
:100788000CAFFFF7F5FE001B0228F6D966E7FFF766
:10079800EFFE401B02287FF617AF5FE7052B04D159
:1007A800236F43F00403236717E7226F22F0010247
:1007B8002267226F22F004022267002B7FF411AF18
:1007C800FFF7D6FE41F288360546236F9B077FF573
:1007D80012AFFFF7CDFE401BB042F6D93EE7FFF758
:1007E800C7FE001BB0427FF602AF37E70038024071
:1007F8000070004000E1F505000047422D4CA36859
:1008080003F00C03082B3FF411AF2B4B022A4FF0D7
:1008180000021A6640D1FFF7ABFE284E0546236852
:10082800980133D447F6C07696FAA6F64FF44032CC
:10083800B6FA86F692FAA2F24FF07060B2FA82F532
:1008480090FAA0F0D1E9073213434A6AB240134341
:100858008A6A5208013AAA401343CA6A174DB0FA85
:1008680080F002FA00F003436360134B114C01223D
:100878001A66FFF77DFE014623689A013FF5BFAE71
:10088800FFF776FE401AA842F6D9E7E6FFF770FEB2
:10089800401BB042C3D9E1E6FFF76AFE074D0146A7
:1008A80023689B017FF5ABAEFFF762FE401AA842B2
:1008B800F6D9D3E6003802400000474280841E0083
:1008C800F8B5494B1A6802F00F028A4204461AD357
:1008D8002268900720D4D20726D4434B1A6802F026
:1008E8000F028A4270D82068430775D410F00800B8
:1008F80011D03E4A2169936823F4604343EAC10357
:100908009360002007E0CAB21A701B6803F00F0357
:100918008B42DDD00120F8BD3448A568836823F0F8
:10092800F0032B438360D6E76268304B012A1DD160
:100938001B6813F4003FEDD02C4DAB6823F0030384
:100948001343AB60FFF714FE6368012B064641F2C0
:10095800883715D1AB6803F00C03042BBDD0FFF723
:1009680007FE801BB842F5D90320D4E7901E012862
:100978001B6802D813F0007FDDE713F0020FDAE7F7
:10098800022B0AD1AB6803F00C03082BA5D0FFF7A4
:10099800EFFD801BB842F5D9E6E7032B0FD1AB6812
:1009A80003F00C030C2B98D0FFF7E2FD801BB84234
:1009B800F5D9D9E7FFF7DCFD801BB842D4D8AB687E
:1009C80013F00C0FF6D188E7CAB21A701B6803F04F
:1009D8000F038B429ED186E70449E3688A6822F4B4
:1009E800E0521A438A6081E7003C02400038024026
:1009F8002DE9F74FDFF8B4816D4ADFF8B89100238D
:100A08000C6801279F4007EA040537EA040440F010
:100A1800B9804C6824F0100ABAF1020F16D14FEAD7
:100A2800D30E00EB8E0E03F0070BDEF820604FEAC2
:100A38008B0B4FF00F0C0CFA0BFC26EA0C0C0E6912
:100A480006FA0BF646EA0C06CEF82060D0F800B09D
:100A58004FEA430E4FF0030C0CFA0EFC2BEA0C0B7A
:100A68006FEA0C0604F0030C0CFA0EFC0AF1FF3ACC
:100A78004CEA0B0CBAF1010FC0F800C016D8D0F838
:100A880008C0D1F80CA006EA0C0C0AFA0EFA4AEAD9
:100A98000C0CC0F808C0D0F804C02CEA0707C4F34F
:100AA800001C0CFA03FC4CEA07074760C76837408C
:100AB8008E6806FA0EF63E43C660E60062D500264A
:100AC8000196D8F8447047F48047C8F84470D8F8BD
:100AD800447007F480470197019F23F0030707F14B
:100AE800804707F59C3703F0030ED7F808A04FEAB4
:100AF8008E0E4FF00F0C0CFA0EFC2AEA0C0CDFF8E5
:100B0800B8A050451DD006F1804606F50136B04222
:100B18003FD006F58066B0423DD006F58066B0420B
:100B28003BD006F58066B04239D0484539D006F545
:100B38000066B04237D006F58066B0420CBF072683
:100B4800082606FA0EF646EA0C06BE601668EF435B
:100B580014F4803F0CBF3E402E431660566814F4D0
:100B6800003F0CBF3E402E435660966814F4801F29
:100B78000CBF3E402E439660D668A40254BF3E4048
:100B88002E43D6600133102B7FF43AAF03B0BDE893
:100B9800F08F0126D5E70226D3E70326D1E70426FE
:100BA800CFE70526CDE70626CBE700BF0038024091
:100BB800003C014000140240000002400AB181617B
:100BC80070470904FBE7000070B5002866D090F86C
:100BD800393003F0FF020BB980F838200168C26889
:100BE8000569C469242380F83930CB6823F400539D
:100BF800CB600B6923F4405313430B618368CA68C5
:100C08002B43456922F416422B4322F00C0223435E
:100C18001343CB604B69826923F440731343B4F5E3
:100C2800004F4B611E4A43684FF0640528D15B00B2
:100C3800B2FBF3F2B2FBF5F605FB1622D300323312
:100C4800B3FBF5F303F007025B0002EB061203F4B3
:100C5800F87313448B600B6923F490430B614B6961
:100C680023F02A034B61CB6843F40053CB60202266
:100C78000023C36380F8392080F83A20184670BDF5
:100C88009B00B2FBF3F2B2FBF5F605FB16231B0142
:100C98003233B3FBF5F303EB0613DBE70120EEE792
:100CA800906EFB0A90F83930202B3ED100293AD0BB
:100CB800002A38D090F83830012B36D0012380F83C
:100CC80038300023C363212380F8393003688284D5
:100CD800C284C28C92B252B91A685206FCD520233B
:100CE80080F83930002380F8383018467047C28CB5
:100CF800013A92B2C2848268B2F5805F0CD11A6858
:100D08001206FCD50A88C2F308025A6002690AB9B9
:100D18000231DEE70131DCE71A681206FCD511F86A
:100D2800012B5A60D5E7012070470220704710B5A3
:100D380090F83A30202B44D1002940D0002A3ED0E8
:100D480090F83830012B3CD0012380F8383000234C
:100D5800C363222380F83A308285C285C38D9BB253
:100D680033B9202280F83A2080F83830184610BD70
:100D7800C38D0268013B9BB2C3858368B3F5805F6E
:100D880011D113689C06FCD50369526833B90B4628
:100D9800C2F3080223F8022B1946DFE70B46D2B24A
:100DA80023F8012BF8E713689B06FCD50469526801
:100DB8004B1C0CB90A70EFE702F07F02FAE701203A
:100DC800D5E70220D3E7704710B50446A8B10379E8
:100DD800012B14D0437903F0FF0213B90271FFF716
:100DE800F2FF226802236371136843F0040313605F
:100DF800002001236371207110BD0120FCE702204F
:100E0800FAE70000002103E00B4B5B584350043124
:100E18000A480B4B42189A42F6D30A4A02E00023CA
:100E280013600432084B9A42F9D3AFF30080FFF7FE
:100E380001FAFFF759FAFEE7940F000800000020B6
:100E48000000002000000020BC000020FEE7000099
:100E5800F8B5C046F8BC08BC9E467047F8B5C04611
:080E6800F8BC08BC9E4670476F
:100E70002A2A2A2A2A536166652D6F2D6D617469AD
:100E800063203330303020426F6F74696E672E2ECE
:100E90002E0A00416C69676E696E6720626974731F
:100EA0002E2E2E2E2E2E2E2E5B444F4E455D0A00EA
:100EB000436865636B696E672043657369756D2070
:100EC000524E472E2E5B444F4E455D0A004D6173D6
:100ED000717565726164696E6720666C6173682EF6
:100EE0002E2E5B444F4E455D0A0044656372797057
:100EF00074696E672064617461626173652E2E5B34
:100F0000444F4E455D0A000A0A005741524E494E71
:100F1000473A20554E415554484F52495A4544206E
:100F20004143434553532057494C4C2042452050A0
:100F3000554E49534845440A00506C65617365201D
:100F4000656E7465722070617373776F726420745C
:100F50006F20636F6E74696E75653A20005041535F
:100F600053574F5244204641494C0A004163636540
:100F70007373206772616E7465642C2057656C63AF
:0C0F80006F6D65210A0068307078330046
:040F8C001102000846
:040F9000E101000873
:0400000508000E0DD4
:00000001FF
